:020000040800F2
:1000000088630020DD010008EB22000815200008AD
:10001000E9220008590900083928000800000000FA
:100020000000000000000000000000004501000882
:10003000AF09000800000000890100081D23000826
:10004000F7010008F7010008F7010008F7010008B0
:10005000F7010008F7010008F7010008F7010008A0
:10006000F7010008F7010008F7010008F701000890
:10007000F701000861090008F70100086D09000890
:1000800079090008F7010008F7010008F7010008E6
:10009000F7010008F7010008F7010008F701000860
:1000A000F7010008A9230008F7010008F70100087C
:1000B000F7010008F7010008F7010008F701000840
:1000C000F7010008F7010008F7010008F701000830
:1000D000F7010008F1270008092800082128000876
:1000E000F7010008F7010008F7010008F701000810
:1000F000F7010008F7010008F7010008F701000800
:10010000F7010008F7010008F7010008F7010008EF
:10011000F7010008F7010008B5230008F7010008FF
:10012000F7010008F7010008F7010008F7010008CF
:10013000DFF80CD000F0FEFB004800479D360008B9
:1001400088630020224B19680868B0E8F00F80F33C
:100150000988BFF36F8F4FF0000080F311884EF0D5
:100160000D0E70470000000006480068006880F32C
:10017000088862B661B6BFF34F8FBFF36F8F00DFA1
:1001800000BF00BF08ED00E0EFF30980BFF36F8F01
:100190000F4B1A6820E9F00F106008B54FF05000BF
:1001A00080F31188BFF34F8FBFF36F8F05F014FCFE
:1001B0004FF0000080F31188BDE808401968086816
:1001C000B0E8F00F80F30988BFF36F8F704700BF6E
:1001D0003C000020EFF30580704700000648804790
:1001E00006480047FEE7FEE7FEE7FEE7FEE7FEE71C
:1001F000FEE7FEE7FEE7FEE7A7230008310100085F
:10020000202A04DB203A21FA02F00021704721FA6B
:1002100002F3D040C2F120029140084319467047D2
:1002200040EA01039B0703D009E008C9121F08C078
:10023000042AFAD203E011F8013B00F8013B521EF8
:10024000F9D27047D2B201E000F8012B491EFBD26F
:1002500070470022F6E710B513460A4604461946D1
:10026000FFF7F0FF204610BD30B505462A460B4685
:1002700012F8010B13F8014B08B1A042F8D01CB1E1
:10028000002802D06D1CF1E7284630BD10B50446A9
:1002900004E00B7800F8013B03B1491C521EF8D270
:1002A000204610BD421C10F8011B0029FBD1801A0A
:1002B000704710B5002200E0521C835C8C5CA342A6
:1002C00001D1002BF8D1D8B2E1B2401A10BD80EABA
:1002D000010210B502F00043400022D04A001FD0B6
:1002E000010E01EB1261C0F35600C2F3560240F456
:1002F000000042F40002A0FB022000047F39140435
:1003000000D0401C50EA124001D44000491EC2B245
:100310000C0604EBD010401C4008802A02D003E0F9
:10032000002010BD20F00100002900DA0020184351
:1003300010BD30B480EA010202F0004530F0004206
:1003400021F0004013D090B1C30DD40DC2F31601BB
:10035000C0F31600E41A41F4000140F400027D34B9
:10036000914201D3641C00E04900002C02DA30BC49
:10037000002070474FF400000023914201D3891AF6
:10038000034340084FEA4101F7D151B1914202D1F4
:100390004FF0004105E002D24FF0010101E06FF0A3
:1003A000010103EBC450284430BC00F08CB92DE9A6
:1003B000FE4F804681EA0300C00F0C46009021F0FA
:1003C000004123F00045B8EB0200A94105D24046A8
:1003D000214690461C460B46024623F0004010433F
:1003E00047D0270DC7F30A00C3F30A510290401A01
:1003F000019040286BDAC3F3130040F4801B00988F
:10040000924620B10023D2EB030A63EB0B0B019859
:100410005946C0F14002504600F034F906460D46F8
:1004200050465946019A00F03CF910EB0800614132
:10043000002487EA115284EAE7731A4340D0009AF5
:1004400062B3019A012A4FEA075215DC001B61EBE7
:1004500002014FF0004202EA0752CDE90042001CBF
:1004600041F5801132462B4600F073F903B0BDE828
:10047000F08F40462146F9E7001B61EB0201001CAA
:1004800041F5801300185B412018A2F5001747EBD7
:10049000030140EAD570B6196D4111E06D084FEACD
:1004A000360645EAC0754FEA0752001B61EB0201B0
:1004B000001C41F5801149084FEA300000195141F4
:1004C00032462B4603B0BDE8F04F00F033B9009838
:1004D000012240000023D0EB020263EBE07300989E
:1004E00021464FEAE074B8EB000061EB0401E9E754
:1004F00083F000435BE781F0004158E72DE9F04DC0
:1005000081EA030404F0004B21F0004514464FF04B
:10051000000A23F0004150EA050220D054EA01020B
:100520001DD0C5F30A570246C5F31303C1F31300E8
:10053000C1F30A5640F4801543F48013A7EB060874
:10054000101BD64608F2FD3873EB050002D308F104
:10055000010801E092185B41B8F1000F03DA0020B6
:100560000146BDE8F08D00204FF480110646844618
:100570000EE0171B73EB050705D3121B63EB050396
:1005800006434CEA010C49084FEA300092185B41DF
:1005900050EA0107EDD152EA030012D082EA0400CA
:1005A00083EA0501084305D0101BAB4106D20122A6
:1005B000002306E000224FF0004302E06FF001024A
:1005C00053101AEB06004CEB085110EB0A0041EBFC
:1005D0000B01BDE8F04D00F0ADB8C10F80EAE0704E
:1005E0000844CA079623002100F076B8962300221B
:1005F000114600F071B830B50B46014600202022AC
:10060000012409E021FA02F59D4205D303FA02F51F
:10061000491B04FA02F52844151EA2F10102F1DC7F
:1006200030BD2DE9F05F0546002092469B46884686
:100630000646814640241BE028464146474622465E
:10064000FFF7DEFD53465A46C01A914110D31146BA
:100650001846224600F016F82D1A67EB01084F469F
:1006600022460120002100F00DF817EB00094E4151
:10067000201EA4F10104DFDC484631462A464346E9
:10068000BDE8F09F202A04DB203A00FA02F10020A6
:1006900070479140C2F1200320FA03F319439040C0
:1006A0007047202A06DBCB17203A41FA02F043EAD2
:1006B000E07306E041FA02F3D040C2F1200291401B
:1006C0000843194670470029A8BF7047401C4900DD
:1006D00008BF20F00100704710B4B0FA80FC00FAA7
:1006E0000CF050EA010404BF10BC704749B1CCF1D2
:1006F000200421FA04F411FA0CF118BF012121435E
:100700000843A3EB0C01CB1D4FEA00614FEA102018
:1007100042BF002010BC704700EBC35010440029BA
:10072000A4BF10BC7047401C490008BF20F0010066
:1007300010BC704710B5141E73F1000408DA401C99
:1007400041F1000192185B411A4301D120F00100F0
:1007500010BD2DE9F04D92469B4611B1B1FA81F2E0
:1007600002E0B0FA80F220329046FFF78BFF044699
:100770000F4640EA0A0041EA0B0153465A46084335
:1007800013D0114653EA010019D0C8F14002504677
:10079000FFF736FD05460E46504659464246FFF7DE
:1007A00071FF084305D0012004E020463946BDE82A
:1007B000F08D0020054346EAE0762C4337430A9843
:1007C0006305E40AA0EB08000022FD0A44EA47544E
:1007D0000A3002D500200146E9E7010510196941F8
:1007E000DDE9084500196941BDE8F04DA2E72DE9B2
:1007F000FE4F81EA030404F0004421F0004100941C
:100800004FF0000B23F0004350EA01045ED052EA9F
:1008100003045BD0C3F30A54C1F30A552C44A4F279
:10082000F3340194A0FB0254C1F3130141F480118D
:10083000C3F3130343F4801301FB024400FB034E94
:10084000840A970A44EA815447EA8357A4FB07685D
:1008500002958D0A05FB07854FEA932C04FB0C5487
:100860002705029D4FEA065847EA1637B5EB0805FB
:100870006EEB070C870E920E47EA811742EA83124D
:10088000A7FB0201B6EB0B0164EB00042B0D43EA5E
:100890000C335E1844EB1C50DA465146E7FB02016C
:1008A000C5F313044FEA0B3343EA14534FEA0432FF
:1008B000019C43EA0603A4F10C040294009CCDE9D8
:1008C00000B4FFF746FF03B0BDE8F08F00200146FB
:1008D000F9E7C1F30A52C1F3130140F2FF3341F4C7
:1008E00080119A4202DA00200146704740F23343F9
:1008F0009A42A2F2334202DC5242FFF781BCFFF778
:10090000C1BE000030B5041E71F1000404DB4FF0DD
:100910000044404264EB0101141E73F1000405DB46
:100920001C464FF00043524263EB0403994208BF58
:10093000904230BD064C074D06E0E06840F00103F0
:1009400094E8070098471034AC42F6D3FFF7F4FB65
:10095000586E0008786E0008FEE770477047000088
:10096000014800F0E3B8000000030020014800F057
:10097000DDB8000078020020014800F0D7B8000080
:10098000BC02002030B590F840500124AC40C56B4B
:100990006C60046863604368102B036803D099603F
:1009A0000068C26030BD9A600068C16030BD7047A9
:1009B00072B6FEE710B590F821100022022905D08A
:1009C0000421816380F82020012010BD01680B689C
:1009D00023F00E030B6001680B6823F001030B602A
:1009E00090F84030C46B012101FA03F3636080F892
:1009F000211080F82020104610BD00002DE9F05F86
:100A000090F821100024022903D0042181630124DD
:100A100085E001680A6822F00E020A6001680A682F
:100A200022F001020A603F4E3E4FB215DFF8F4C0DB
:100A3000DFF8F090DFF8ECA0DFF8E8B0DFF8E4E0F2
:100A40000168783F13011502ACF1640CA9F150095B
:100A5000AAF13C0AABF1280BAEF1140E4FF480184A
:100A6000B14227D9B9420ED0614512D049451DD0B7
:100A7000514518D0594518D0714501D1424615E06D
:100A8000294EB14201D1012210E0274E1436B14265
:100A900001D110220AE0244E2836B14206D0224A63
:100AA0003C32914201D11A4600E02A461E49091FF4
:100AB0000A602BE0B94213D0614517D0494522D0D6
:100AC00051451DD059451DD0714501D142461AE00E
:100AD000B14202D14FF0807215E0134EB14201D104
:100AE000012210E0104E1436B14201D110220AE06A
:100AF0000D4E2836B14206D00B4A3C32914201D10C
:100B00001A4600E02A46074980394A60012180F8E8
:100B10002110002180F82010416B01B18847204648
:100B2000BDE8F09F80000240080402402DE9F05F1C
:100B3000C16B0A6801680B68046C4FF0040808FA7E
:100B400004F8844D844E854FDFF814C2DFF8149208
:100B5000DFF814A2DFF814B2DFF814E218EA020F8B
:100B600065D05FEA437862D50A68920603D40A68C2
:100B700022F004020A60DFF8F0814FF4806201681D
:100B800008F1140813011402414524D9A9420DD0DB
:100B9000B1420FD0B9421AD0614515D0494515D0A0
:100BA000514501D1120312E0594501D104220EE052
:100BB000714501D140220AE06D4D1435A94206D09D
:100BC0006B4A2832914201D11A4600E02246674919
:100BD000091F0A6029E0A94213D0B14215D0B942D9
:100BE00020D061451BD049451BD0514502D14FF45F
:100BF000800217E0414502D14FF0806212E0594572
:100C000001D104220EE0714501D140220AE0584D85
:100C10001435A94206D0564A2832914201D11A46CB
:100C200000E022464B4908394A60C16A71E04FF042
:100C3000020808FA04F818EA020F70D05FEA837815
:100C40006DD50A68920606D40A6822F00A020A6084
:100C5000012180F82110DFF810814FF40072016843
:100C600008F1140813011402414524D9A9420DD0FA
:100C7000B1420FD0B9421AD0614515D0494515D0BF
:100C8000514501D1120312E0594501D102220EE073
:100C9000714501D120220AE0354D1435A94206D014
:100CA000334A2832914201D11A4600E022462F49A8
:100CB000091F0A6029E0A94213D0B14215D0B942F8
:100CC00020D061451BD049451BD0514502D14FF47E
:100CD000001217E0414502D14FF0007212E0594571
:100CE00001D102220EE0714501D120220AE0204DFF
:100CF0001435A94206D01E4A2832914201D11A4623
:100D000000E02246134908394A60002180F820108B
:100D1000816A00291CD0BDE8F05F0847FFE708257D
:100D2000A540154214D01A0712D50A6822F00E0207
:100D30000A6090F84020C36B012101FA02F25A6068
:100D4000816380F82110002180F82010016BE0E71A
:100D5000BDE8F09F080002401C0002403000024045
:100D600044000240580002406C0002400804024067
:100D70001C04024030B560B11A4B026814219A423B
:100D800009D2194B1344B3FBF1F1890001641749EF
:100D90000AE0012030BD134B5B421344B3FBF1F179
:100DA000890001640F490839C163022180F82110CC
:100DB000136843F6F0718B43F0E901142143D0E945
:100DC00002452C432143046921434469214384693A
:100DD00021431943116000214163012242770177C9
:100DE000084630BD08040240F8FFFDBF0000024085
:100DF00070B5044690F82000002501280CD0012091
:100E000084F8200094F821600020012E06D084F898
:100E100020000225284670BD022070BD022684F8FD
:100E20002160A0632068066826F00106066020465F
:100E3000FFF7A8FDE06A00282068016802D041F0B1
:100E40000E0106E021F0040101602068016841F014
:100E50000A0101602068016841F001010160D9E7E1
:100E60002DE9F84FDFF8C891002409F1040A0AF1CE
:100E7000040B23460F270BF1040ED1E00125A540FA
:100E800006EA0502AA4276D1DFF8A8C14E68A6EBB1
:100E90000C0866452BD00DDC032E34D005DC36B3B0
:100EA000012E19D0022E2FD11BE0112E16D0122E9A
:100EB0002AD119E0B8F5881F19D006DCB8F5803FB3
:100EC00015D0B8F5801F1FD111E0B8F5001F0ED066
:100ED000B8F5041F18D10AE0CB6815E0CB681B1DDC
:100EE00012E0CB6808330FE0CB680C330CE08B6862
:100EF0002BB1012B4FF0080303D0456104E004231C
:100F000002E0056100E00023FF2A01D8064601E067
:100F100000F104064FEA840501D9A5F12005D6F8B1
:100F2000008007FA05FC28EA0C0803FA05F548EAF0
:100F30000508C6F800804D68ED0070D53E4DAE69DD
:100F400046F00106AE61AD6924F0030605F0010527
:100F500000953A4D06EB050CDCF80850A607360F55
:100F600007FA06F825EA0805DFF8D480404503D1E2
:100F70004FF0000825E052E0DFF8C880404502D17C
:100F80004FF001081DE0DFF8C080404502D14FF06E
:100F9000020816E0DFF8B480404502D14FF00308A4
:100FA0000FE0DFF8AC80404502D14FF0040808E0C4
:100FB000DFF8A080404502D14FF0050801E04FF076
:100FC000060808FA06F848EA0508CCF808804D68D3
:100FD000D9F80060ED034D4601D5164300E0964375
:100FE0002E604D68DAF80060AD03554601D5164312
:100FF00000E096432E604D68DBF80060ED025D4630
:1010000001D5164300E096432E604D68DEF800607F
:10101000AD02754601D5164300E096432E60641C70
:101020000A681646E2407FF429AFBDE8F88F000059
:1010300000040140000011100010024000000140B7
:1010400000080140000C0140001001400014014064
:1010500000180140001C01400AB1016170470904F9
:10106000FBE7000001488068704700002C0000206A
:101070000248816802781144816070472C0000208A
:10108000074810B5016841F010010160032000F02D
:1010900095F8002000F006F800F03EF8002010BDA2
:1010A0000020024000B5014687B00022192000F060
:1010B00065F8192000F054F81348816941F4006183
:1010C0008161806905A900F400600690684600F01F
:1010D0001DF900F04BF90D490D4AB0FBF1F10D4837
:1010E000491E0260416040F2E7320021C0E903215D
:1010F000816000F051FB10B1012007B000BD054830
:1011000000F096FBF9E700000010024040420F009B
:10111000002C0140440300200F4808B5816941F0CC
:1011200001018161816901F001010091C16941F012
:101130008051C161C069002200F0805000900F21F1
:10114000901E00F01BF80548416821F0E06141F075
:101150000071416008BD0000001002400000014025
:10116000002809DB00F01F020121914040098000A6
:1011700000F1E020C0F8001170470000F0B40E4B01
:101180001B680C46C3F30223C3F10705042D00D9E5
:101190000425191D072901D2002300E0DB1E0126CA
:1011A00006FA05F1491E214099409E40761E1640E0
:1011B0003143F0BC01F0A6BB0CED00E0064900F0A5
:1011C000070208684FF6FF03184040EA0220034A6E
:1011D00010430860704700000CED00E00000FA05C5
:1011E0002DE9F0470F46050061D0434E306800F00E
:1011F0000700B84209D2306820F007003843306059
:10120000306800F00700B84251D128683B4C810794
:1012100012D5400703D5606840F4E060606028782C
:10122000000703D5606840F4605060606068A9689A
:1012300020F0F000084360602878C00728D0686874
:10124000012810D02168022810D0890700292EDA41
:10125000616821F0030101436160FFF703FF8046ED
:1012600041F288390DE021688903EFE78901EDE754
:10127000FFF7F8FEA0EB0801494502D90320BDE8BD
:10128000F0876068696800F00C00B0EB810FEFD167
:10129000306800F00700B8420BD9306820F0070032
:1012A00038433060306800F00700B84201D00120B8
:1012B000E5E72878400705D56068E96820F4E06034
:1012C000084360602878000706D56068296920F423
:1012D000605040EAC100606000F058F86168084A58
:1012E000C1F30311515CC840064908600648006814
:1012F000FFF7D8FE0020C2E70020024000100240A5
:101300000C6B000838000020300000200F22026023
:101310000C4A536803F003034360536803F0F0037F
:101320008360536803F4E063C36052684FF4E06382
:1013300003EAD20202610448006800F00700086076
:101340007047000000100240002002400448054998
:1013500000684968044AC1F30221515CC8407047E3
:1013600038000020001002401C6B000804480549AA
:1013700000684968044AC1F3C221515CC840704703
:1013800038000020001002401C6B000812A185B03C
:101390000FC98DE80F0014A0144A0068049051682A
:1013A000134801F00C03042B10D0082B0ED1C1F30D
:1013B0008343C9031DF803000AD5516804AAC1F389
:1013C0004041515C0A4A5043B0FBF1F005B0704710
:1013D00008494843FAE70000020304050607080924
:1013E0000A0B0C0D0E0F101001020000001002403D
:1013F00000127A0000093D002DE9F84F040070D07A
:101400002078C04DC00749D06868C0F3810001282A
:1014100007D06868C0F38100022809D16868C0035A
:1014200006D52868800339D560680028E7D035E004
:101430006068B0F5803F0BD010B1B0F5A02F11D08F
:10144000286820F480302860286820F4802002E09A
:10145000286840F480302860606890B1FFF702FE91
:1014600006460AE0286840F480202860F0E700BFC4
:10147000FFF7F8FD801B642873D828688003F7D530
:101480000CE0FFF7EFFD064605E000BFFFF7EAFDC1
:10149000801B6428F0D828688003F7D420789A4EFF
:1014A00080074FF001094FF0000839D5686810F047
:1014B0000C0F07D06868C0F38100022809D1686862
:1014C000C00306D42868800714D52069012808D1F4
:1014D00010E02069B0B1C6F80090FFF7C3FD0746E1
:1014E00005E00AE1FFF7BEFDC01B0228C4D828684A
:1014F0008007F7D52868616920F0F80040EAC1004C
:1015000028600DE0C6F80080FFF7ACFD074604E058
:10151000FFF7A8FDC01B022823D828688007F7D44E
:10152000207800072CD57948A169D9B1C0F800907E
:10153000FFF798FD074604E0FFF794FDC01B022863
:101540000FD8686A8007F7D571484FF4FA510068E0
:10155000B0FBF1F0009000BF0098411E0091FAD25C
:101560000EE080E0C0F80080FFF77CFD074604E055
:10157000FFF778FDC01B022875D8686A8007F7D48A
:101580002078400760D5E8690027C00008D4E869E2
:1015900040F08050E861E869012700F08050009039
:1015A0005C480168C90513D40168834641F4807121
:1015B0000160FFF757FD824606E000BFFFF752FDCE
:1015C000A0EB0A0064284ED8DBF80000C005F5D572
:1015D000E06801280AD008B1052813D0286A20F055
:1015E00001002862286A20F0040002E0286A40F026
:1015F00001002862E06841F2883B98B1FFF732FDB4
:1016000082460BE0286A40F004002862EEE700BF43
:10161000FFF728FDA0EB0A0159455AD8286A800730
:10162000F6D50CE0FFF71EFD824605E0FFF71AFD38
:10163000A0EB0A0159454CD8286A8007F6D41FB19F
:10164000E86920F08050E861E06988B36968C1F317
:101650008101022944D00228C6F8608004D0FFF737
:1016600001FD044638E034E0FFF7FCFC074604E0E7
:10167000FFF7F8FCC01B02282BD828688001F7D49C
:10168000206AB0F5803F05D16868A16820F4003079
:1016900008436860D4E908010843696821F47411BB
:1016A00008436860C6F86090FFF7DCFC044606E07B
:1016B00025E000BFFFF7D6FC001B022809D82868E8
:1016C0008001F7D51BE000BFFFF7CCFC001B022810
:1016D00002D90320BDE8F88F28688001F4D40EE019
:1016E0000128F7D06868226A00F48031914204D161
:1016F000616A00F47010884201D00120EAE70020FE
:10170000E8E700000010024000004242800442422C
:1017100038000020007000407047704770B590F8A6
:101720003C20012A2CD0012480F83C40022280F881
:101730003D2003685A689D6822F070060A683243AB
:101740005A60104B02689A420ED00F4B9A420BD04F
:10175000B2F1804F08D00D4B9A4205D00C4B9A4203
:1017600002D00C4B9A4204D1496825F080031943FA
:10177000916080F83D40002180F83C10084670BD23
:10178000022070BD002C01400034014000040040E4
:1017900000080040000C004010B5040003D094F88D
:1017A0003D0010B107E0012010BD002084F83C008E
:1017B000204600F01FF8022084F83D00211D20681B
:1017C00000F0FEFD012084F8460084F83E0084F815
:1017D0003F0084F8400084F8410084F8420084F817
:1017E000430084F8440084F8450084F83D0000205C
:1017F00010BD000008B500680B49884212D10B48A3
:10180000C16941F01001C161C069002200F01000FF
:10181000009005213620FFF7B1FCBDE808403620D6
:10182000FFF79EBC08BD0000001000400010024001
:1018300090F83D10012901D001207047022180F865
:101840003D100168CA6842F00102CA6000680E4992
:1018500088420ED00D4988420BD0B0F1804F08D09D
:101860000B49884205D00B49884202D00A49884278
:1018700004D1816801F00701062903D0016841F015
:101880000101016000207047002C0140003401403C
:101890000004004000080040000C0040704770B594
:1018A0000446006801694FF00005C943890715D453
:1018B000C168C943890711D4E91E0161012020775D
:1018C000206880698007204602D0FFF7E7FF04E028
:1018D00000F098F8204600F096F825772068016916
:1018E000C943490717D4C168C943490713D46FF0E6
:1018F00004010161022020772068806910F4407F94
:10190000204602D0FFF7CAFF04E000F07BF8204633
:1019100000F079F8257720680169C943090716D4D2
:10192000C168C943090712D46FF00801016104209E
:1019300020772068C0698007204602D0FFF7AEFFFD
:1019400004E000F05FF8204600F05DF8257720689D
:101950000169C943C90617D4C168C943C90613D46C
:101960006FF010010161082020772068C06910F431
:10197000407F204602D0FFF791FF04E000F042F8DC
:10198000204600F040F8257720680169C943C9075F
:1019900008D1C168C943C90704D1891E0161204625
:1019A00000F032F820680169C943090609D4C1680A
:1019B000C943090605D46FF0800101612046FFF795
:1019C000ABFE20680169C943490609D4C168C9430F
:1019D000490605D46FF040010161204600F01EF871
:1019E00020680169C94389060BD4C168C9438906C7
:1019F00007D46FF0200101612046BDE87040FFF779
:101A00008CBE70BD7047704700680349884201D1A1
:101A1000FFF72EBB70470000002C01407047704755
:101A200010B504460068416994F83D20C1F3C01127
:101A3000212A0BD151B1416921F080014161606BD4
:101A400008B1FEF7B7FF204600F08BFD2068416922
:101A500094F83E20C1F38011222A0BD151B1416983
:101A600021F040014161A06B08B1FEF7A3FF2046C1
:101A700000F05FFD002010BD0020401C0528FCDBAD
:101A800070470000F8B5026804461068D1685369D1
:101A900010F00F0F4FF0000554D003F0010601F4D1
:101AA000907737435FD0C20705D0CA0503D5226CB3
:101AB00042F001022264420705D5DA0703D0226C06
:101AC00042F002022264820705D5DA0703D0226CB5
:101AD00042F004022264020707D501F020023243DB
:101AE00003D0226C42F008022264226C002A35D016
:101AF000800604D5880602D5204600F03BFD20680C
:101B00004069216CC0F3801001F0080101432046B8
:101B100025D000F00EFD2068416949061BD54169BA
:101B200021F040014161A06BA8B158494163A06B0D
:101B3000FEF764FF002811D0A06B416B01B0BDE837
:101B4000F040084783060ED58B060CD52046BDE82D
:101B5000F84000F00FBD2046FFF78EFFF8BDFFF7FD
:101B60008BFF2564F8BD266B2023012E52D1C606BB
:101B700050D5CE064ED5106850680090506940068A
:101B80002AD5A16B086840680004000CEAD0A68D35
:101B90008642E7D9E0858869202818D0D06820F4EB
:101BA0008070D0602068416921F0010141612068A6
:101BB000416921F04001416184F83E30256320688D
:101BC000C16821F01001C160A06BFEF7F3FEA08D8B
:101BD000E18D401A81B219E0A08DE18D401A81B2E9
:101BE000E08D0028BED00029BCD0D06820F49070D1
:101BF000D0602068426922F00102426184F83E30E0
:101C000025632068C26822F01002C2602046FFF7F8
:101C100006FFF8BD05062BD50D0629D594F83D0025
:101C20002128F6D1A068B0F5805F01D12069B0B15C
:101C3000206A411C2162216800784860E08C401EC7
:101C40000004000CE084E4D12068C16821F0800128
:101C5000C1602068C16841F04001C160F8BD206AE0
:101C60000088C0F308005060206A801C2062E5E70D
:101C70004006F3D54806F1D5D168204621F0400151
:101C8000D16084F83D3000F0C4F9F8BD6524000847
:101C900070B5040004D094F83D00002510B106E0B2
:101CA000012070BD84F83C50204600F023F8242029
:101CB00084F83D002068C16821F40051C1602046CD
:101CC00000F0B4FC2068016921F4904101612068B2
:101CD000416921F02A0141612068C16841F4005145
:101CE000C1602564202084F83D0084F83E00002077
:101CF00070BD00002DE9F04786B0002400940194E7
:101D000002940394054603687648754F0615022130
:101D100003224FF4006ABB4221D1C36943F400237C
:101D2000C361C36903F400230493836943F0100380
:101D300083618069CDE9006100F01000CDE90320E6
:101D4000694D69462846FFF78BF8CDE900A469463E
:101D500028460294FFF784F806B0BDE8F087DFF864
:101D60008CC1DFF88C8180274FF02009634538D182
:101D7000836943F480438361836903F4804304935C
:101D8000836943F0040383618069039200F00400D7
:101D90000490B800CDE9000169464046FFF760F8BD
:101DA000CDE90064694640460294FFF759F8524E67
:101DB0005048C6E90004C6E902473461B8017461BD
:101DC000C6E906903046FEF7D5FF08B1FEF7F0FDF4
:101DD000AE630022052125207562FFF7CFF925208B
:101DE0003DE0DFF818C163453CD1C36943F40033DB
:101DF000C361C36903F400330493836943F00403AC
:101E000083618069039200F0040004900420CDE90E
:101E1000000169464046FFF723F80820CDE9000499
:101E2000694640460294FFF71BF8334E314844366A
:101E30001430C6E90004C6E902473461C6E9054921
:101E40003046F461FEF796FF08B1FEF7B1FDAE63D0
:101E50000022052126207562FFF790F92620FFF762
:101E60007FF979E7DFF898C06345FAD1C36943F495
:101E70008023C361C36903F480230493836943F01F
:101E8000080383618069CDE9006100F00800CDE9B5
:101E900003201C4E69463046FEF7E2FFCDE900A460
:101EA000694630460294FEF7DBFF134E1148883630
:101EB0002838C6E90004C6E902473461C6E9054985
:101EC0003046F461FEF756FF08B1FEF771FDAE63D0
:101ED0000022052127207562FFF750F92720BEE771
:101EE000004C00400010024000100140003801404A
:101EF00000080140580002407802002000440040E1
:101F000000480040000C014090F83E30202B0ED1DC
:101F100059B152B190F83C30012B08D0012380F820
:101F20003C300023036300F0DDBB0120704702203A
:101F3000704790F83E30202B0ED159B152B190F835
:101F40003C30012B08D0012380F83C300023036390
:101F500000F000BC012070470220704770477047B6
:101F60002DE9F843044690F83D001F4616460D46FD
:101F700020284CD1C5B1BEB194F83C00012846D010
:101F8000012084F83C004FF00008C4F84080212074
:101F900084F83D00FFF766F8A6848146E684A068D1
:101FA000B0F5805F03D004E00120BDE8F88320692C
:101FB00028B12E465FF0000584F83C800EE0002634
:101FC000FAE78021204600F0E0FBA0B9AEB116F898
:101FD000010B21684860E08C401EE084E08C4B4699
:101FE0004FF0000200970028EBD14FF0400120464F
:101FF00000F0CBFB30B10320D7E735F8020BC0F37C
:102000000800E6E7202084F83D000020CDE702200C
:10201000CBE77047FEE70000114808B5416941F081
:10202000010141614069002200F00100009005219A
:102030000D20FFF7A3F80D20FFF792F800220521ED
:102040000F20FFF79BF80F20FFF78AF800220521E9
:102050001020FFF793F8BDE808401020FFF780B884
:102060000010024010B5254801F05AFD244CA06133
:102070002248103001F054FD204A0121E061203255
:10208000084601F08DFD1D4A0121206230320846CC
:1020900001F086FD194B6062203B002201211948A6
:1020A00001F028FE154B2061103B0022012116484B
:1020B00001F020FE114A6061B03A0021134801F09E
:1020C000C7FD0E4A20608C3A0021114801F0C0FD86
:1020D0000A4A6060683A00210E4801F0B9FD074ADB
:1020E000A060443A00210C4801F0B2FDE0600348D2
:1020F000403001F0B7FCA06210BD0000BC6A0008CF
:10210000000000205B0900085D090008ED220008BE
:1021100035460008855A0008793500082DE9F04158
:1021200086B00025234800950195029503958169A5
:1021300041F004018161816901F004010491816928
:1021400041F008018161816901F008010491816910
:1021500041F010018161816901F0100104918169F0
:1021600041F0200181618069134F00F0200004904C
:10217000002230213846FEF76FFFDFF84080002252
:102180002A214046FEF768FF01243020CDE90004F3
:102190000226CDE9024669463846FEF761FE2A204E
:1021A0008DE8710069464046FEF75AFE06B0BDE86C
:1021B000F0810000001002400008014000140140BE
:1021C0001CB500240F4800940D490194016023219F
:1021D000C0E901144FF47A71C16080218161FFF779
:1021E000DBFA08B1FEF7E4FB009469460548019468
:1021F000FFF794FA002801D0FEF7DAFB1CBD0000BF
:1022000000100040200100200C4810B50A49016070
:102210004FF4E1314160002181600C22C160C0E9CE
:1022200004128161C161FFF733FD002803D0BDE8CE
:102230001040FEF7BDBB10BD004C004068010020FF
:102240000C4810B50A4901604FF4E13141600021AA
:1022500081600C22C160C0E904128161C161FFF795
:1022600017FD002803D0BDE81040FEF7A1BB10BD4C
:1022700000380140AC0100200C4810B50A4901604B
:102280004FF4E1314160002181600C22C160C0E95E
:1022900004128161C161FFF7FBFC002803D0BDE897
:1022A0001040FEF785BB10BD00440040F001002047
:1022B0000C4810B50A4901604FF4E131416000213A
:1022C00081600C22C160C0E904128161C161FFF725
:1022D000DFFC002803D0BDE81040FEF769BB10BD4D
:1022E0000048004034020020FEE7FEE701F0A2F9BA
:1022F00001F0CAF902E00A2001F09AFB01F094F91A
:102300000028F8D001F004F801F08EF908B101F0CE
:102310009BF80A2001F08CFBF6E7000010B5502076
:1023200080F31188BFF34F8FBFF36F8F04F09AF9DA
:1023300018B104494FF080500860002080F31188E4
:1023400010BD000004ED00E030B58FB028216846D4
:10235000FDF77FFF14210AA8FDF77BFF0121080488
:10236000CDE900100024029402250491CDE9075024
:102370004FF4E01009906846FFF73EF808B172B6D6
:10238000FEE70F20CDE90A054FF48060CDE90C404F
:1023900002210AA80E94FEF723FF002801D072B68E
:1023A000FEE70FB030BD70470148FFF778BA000074
:1023B000440300200148FFF772BA0000200100200A
:1023C000F0B502681C4B1D4D1D4E1E4F1E4C4FF0AC
:1023D000804C984209D0A04207D0604505D0A84261
:1023E00003D0B04201D0B84204D122F0700E4A6846
:1023F00042EA0E02984209D0A04207D0604505D0BB
:10240000A84203D0B04201D0B84203D122F44075B3
:10241000CA682A434D6922F080022A4302608A6812
:10242000C2620A688262984201D0A04201D1096961
:10243000016301214161F0BD002C01400004004016
:1024400000080040000C00400034014010B502F0CC
:10245000CDF8002805D0D0E90021BDE8104008469D
:10246000104710BD10B5406A0021C185C184FFF737
:1024700003FB10BD70B5446A2068406994F83D10B4
:10248000C0F3C0100025212904D118B1E5842046ED
:1024900000F067F82068406994F83E10C0F380109F
:1024A000222904D118B1E585204600F042F8206CBD
:1024B00040F0100020642046FFF7DEFA70BD10B532
:1024C0000146406A0968096889061BD40021C18554
:1024D0000168CA6822F48072CA6001684A6922F001
:1024E00001024A6101684A6922F040024A612021E2
:1024F00080F83E10016B012904D10168CA6822F0FE
:102500001002CA60016B012902D0FFF727FD10BD40
:10251000818DFFF784FA10BD10B5406A016B012967
:1025200002D0FFF71CFD10BD818D4908FFF777FA37
:1025300010BD0168CA6822F49072CA6001684A69D5
:1025400022F001024A61016B012904D10168CA68C5
:1025500022F01002CA60202180F83E1000210163A1
:1025600070470168CA6822F0C002CA60202180F862
:102570003D10704708B590F83E10222901D0022086
:1025800008BD82684FF480539A4201D1016921B19C
:10259000816A9A421BD04AB10AE00268816A526895
:1025A000C2F308020A80816A891C08E0026972B1DC
:1025B0000268526802F07F020A70816A491C8162D7
:1025C000C18D491E0904090CC18503D019E00268B8
:1025D0005268F1E70168CA6822F02002CA60016807
:1025E000CA6822F48072CA6001684A6922F0010256
:1025F0004A61202180F83E10016B012903D0FFF7CA
:10260000ADFC002008BD002101630168CA6822F00A
:102610001002CA6001680A68D20602D50A684968D1
:102620000091818DFFF7FBF9EBE7000070B50446E0
:1026300000680169E26821F4405111430161216998
:10264000A0680843616908432168CA6841F20C63C5
:102650009A430243CA6020684169A26921F440712B
:10266000114341611E492068884202D1FEF77EFE77
:1026700001E0FEF76BFE00EBC00101EB00126068A9
:1026800064218000B2FBF0F3B3FBF1F36FF01806A6
:102690007343B2FBF0F5B2FBF0F605EB8305322392
:1026A00003EB0515B5FBF1F5B6FBF1F605F0F0050A
:1026B00005EB0615B2FBF0F6B2FBF0F0B0FBF1F063
:1026C0006FF01802504306EB800003EB0010B0FBE4
:1026D000F1F0216800F00F002844886070BD000010
:1026E0000038014038B581628285002513460446D2
:1026F0000564222084F83E00A26B13489062A26B0E
:102700001248D062A26B12481063A06B0A46456360
:102710002168A06B091DFEF76BFB2068016841680A
:10272000009184F83C50C16841F48071C160206818
:10273000416941F0010141612068416941F0400176
:102740004161002038BD0000BF24000819250008A1
:102750007524000881628285C285002101642222DD
:1027600080F83E2080F83C100168CA6842F480720C
:10277000CA6001684A6942F001024A610068C168A2
:1027800041F02001C160002070472DE9F0419846DA
:1027900017460E460446069D1DE0681C1BD02DB151
:1027A000FEF760FCA0EB0800A84214D92068C168BD
:1027B00021F4D071C1602068416921F001014161BB
:1027C000202084F83D0084F83E00002084F83C007E
:1027D0000320BDE8F0812068006836EA000004D0DC
:1027E0000020B842D9D00020F3E70120F9E700002B
:1027F00010B5044800F022F8BDE810400148FFF78A
:1028000041B90000AC01002010B5044800F016F8F2
:10281000BDE810400148FFF735B90000F001002085
:1028200010B5044800F00AF8BDE810400148FFF771
:1028300029B9000034020020FEE70000F8B5034685
:102840001D49002000EB801202EB420251F8225099
:102850009D4206D101EB820292F80953012D00D16D
:102860001446401C0528EDDB216808680268D24345
:10287000D2061FD40268406800900846FFF7D0F8DF
:102880002068806B00684068626822B1C0F5007102
:1028900004F1080090474FF4007504F10800294640
:1028A0000646FDF7D6FC2A4631462068BDE8F840CA
:1028B000FFF72ABBF8BD0000703700200FB4054BAE
:1028C00010B503A9044A029800F0EEF810BC5DF8B8
:1028D00014FB0000E93500081C0100200FB4084B70
:1028E00010B504A902AA039800F0DEF8044602A974
:1028F000002000F070FC204610BC5DF814FB0000C6
:10290000D73100080907090E002804DB00F1E02098
:1029100080F80014704700F00F0000F1E02080F80C
:10292000141D704702E008C8121F08C1002AFAD11E
:1029300070477047002001E001C1121F002AFBD13F
:10294000704700002DE9FF5FDDE90220010DDDF891
:1029500038B0024318D044F61050A1F2FF31414381
:102960000D140F98012820D0A5EB0B00401C5FEA46
:10297000000A4FF00004474EDFF81C91A046504675
:1029800016D5CAF1000728E00F98012443A20128B8
:1029900008D0002100980F9BC0E90021C0E9024344
:1029A000BDE8FF9F6FEA0B01F4E7CBF10000DEE723
:1029B000074612E0F80707D022463346404649460C
:1029C000FDF715FF804689462246334610461946D4
:1029D000FDF70DFF04460E467F10002FEAD1DDE91A
:1029E0000201BAF1000F42464B4602DAFDF7FFFE44
:1029F00001E0FDF783FD04460E460022284BFDF75B
:102A000081FF03D84FF0FF30014607E00022254B3D
:102A100020463146FDF7CBFCFDF75BFF102409E0B3
:102A2000002C0ADB0A220023FDF7FBFD019B30325C
:102A30001A55641E50EA0102F2D1641C019AC4F1D5
:102A4000110314440F9A012A03D0012208430DD127
:102A50000AE0084304D000204FF0110B0F9080E7EC
:102A6000A3EB0B056D1E0DE05B4504DD4FF000028E
:102A700005F1010504E003DA4FF00002A5F10105BC
:102A8000002AECD000980F99C0E90231C0E9004556
:102A900086E70000000024400000F03F3000000006
:102AA0000000F0430000E03F2DE9FF4F95B09B464A
:102AB0008946064600250FE2252877D100242746BF
:102AC000F84A0121059400E0044316F8013F203B39
:102AD00001FA03F01042F7D130782A2811D06FF0B4
:102AE0002F033078A0F13002092A16D8059A44F055
:102AF000020402EB820203EB42021044761C0590B2
:102B0000EFE759F8042B0592002A03DA504244F407
:102B10000054059044F00204761C30782E2816D11B
:102B200016F8010F44F004042A280DD06FF02F028C
:102B30003078A0F13003092B09D807EB870302EBAB
:102B40004303C718761CF3E759F8047B761C3078EA
:102B50006C280FD006DC4C2817D068280DD06A28C6
:102B600014D104E0742810D07A280FD10DE044F479
:102B700000140AE044F4801401E044F44014727834
:102B8000824202D104F58014761C761C30786628C7
:102B90000BD013DC582877D009DC002875D04528E5
:102BA000F6D04628F4D047281AD19DE118E06328D2
:102BB00035D0642879D0652812D195E1702873D07A
:102BC00008DC6728F1D069286FD06E280DD06F28F7
:102BD00006D1B5E073282CD0752875D0782874D02C
:102BE0005A46179990476D1C75E1C4F302500228AC
:102BF00009D003280DD0D9F8001004280DD00D609D
:102C000009F1040967E1D9F80010EA17C1E9005297
:102C1000F6E7D9F800100D80F2E70D70F0E719F82B
:102C2000041B8DF8001000208DF80100EA460120F9
:102C300003E059F804AB4FF0FF3061074FF000019B
:102C400002D40DE008F101018846B9420FDA80454F
:102C5000F8DB1AF808100029F4D108E008F10101A6
:102C600088468142FADB1AF808100029F6D1059847
:102C70005B46A0EB080721463846179A00F094FA05
:102C8000284400EB080507E04DE029E10DE01AF8C3
:102C9000010B5A4617999047B8F10108F7D25B46E5
:102CA00021463846179A13E142E00A220092C4F303
:102CB00002524FF0000A022A08D059F804CB032A26
:102CC0004FEAEC710AD00DE029E02AE009F1070192
:102CD00021F00702F2E802C1914609E00FFA8CFCEC
:102CE0004FEAEC71042A03D14FFA8CFC4FEAEC71E5
:102CF000002907DA0A460021DCF1000C61EB020131
:102D00002D2202E0220504D52B228DF80420012279
:102D100003E0E20701D02022F7E7904659E00A21BC
:102D200002E010220DE010214FF0000A00910BE0AC
:102D300010224FF0000A44F004040827009203E038
:102D400008224FF0000A0092C4F30252022A05D072
:102D500059F804CB0021032A08D009E009F1070142
:102D600021F00702F2E802C1914605E01FFA8CFC4F
:102D7000042A01D10CF0FF0C4FF00008220728D5DF
:102D8000702806D0009B83F0100353EA0A0305D095
:102D90000EE040228DF80420012208E05CEA0102E6
:102DA00006D030228DF804208DF8050002229046CE
:102DB000009B83F0080353EA0A030AD15CEA01028C
:102DC00001D1620705D530228DF804204FF00108AB
:102DD0007F1E582804D034A003900EA802900DE066
:102DE00036A0F9E753466046009AFDF71AFC844680
:102DF0000398825C0298401E029002705CEA010017
:102E0000F0D1029806A9081A00F1200A600702D53D
:102E100024F4803400E00127574502DDA7EB0A00C7
:102E200000E0002000EB0A01009005984144401AA0
:102E30000590E00306D45B462146179A059800F0FA
:102E4000B3F90544002706E001A85A46C05D17996A
:102E500090476D1C7F1C4745F6DBE0030CD55B46B5
:102E60002146179A059800F09FF9054404E03020A8
:102E70005A46179990476D1C0099481E00900029EA
:102E8000F5DC08E0029802995A460078491C029144
:102E9000179990476D1CBAF10001AAF1010AF1DC03
:102EA00065E100000928010030313233343536370E
:102EB0003839616263646566000000003031323386
:102EC0003435363738394142434445460000000026
:102ED00000F058F90544761C307800287FF4ECADFA
:102EE00019B02846BDE8F08F620700D4062709F123
:102EF000070222F0070CFCE80223E14603F0004839
:102F00005FEA080C02D00FF2702C0DE05FEA045C5F
:102F100002D50FF2682C07E05FEAC47C02D00FF202
:102F2000602C01E0AFF2700C4FF0FF3823F000434B
:102F3000CDF850C065280CD006DC452809D04628BD
:102F40001DD047283DD13DE0662818D067287ED1A6
:102F500038E00021112F01DB112000E0781CCDE9C1
:102F6000000106A90EA8FFF7EDFCDDE90F010E9A9E
:102F700003910021009207F1010A04914DE04FF006
:102F800000400097CDE9011006A90EA8FFF7DAFC72
:102F9000DDE90F0203920E9B11990022DDF80CA0CF
:102FA0000093049211B9791C00EB010AB7EB0A00F7
:102FB00004D4C0F1FF3007F1010A0490AAEB070026
:102FC000019044E0012F00DA01270021112F01DDDB
:102FD000112000E03846CDE9000106A90EA8FFF750
:102FE000B1FCDDE90F010E9A0391002104910092DA
:102FF000BA4621070CD40399514500DA8A46BAF142
:10300000010F05DD009AAAF10101515C302908D0B9
:10301000B84202DA10F1040F06DA0121CDE90110FD
:1030200015E0AAF10101E9E7002805DC0499014453
:103030000491AAEB000102E0411C514500DD8A46E3
:103040000499401A401C01904FF000400290200764
:1030500004D40198504501DBCDF8048000208DF8A0
:103060004F0002980DF14F07B0F1004F25D02B20F3
:103070000E9002984FF0020800280CDA40420290AD
:103080002D200E9007E00A210298FDF7B4FA3031A6
:10309000029007F8011DB8F10001A8F10108F2DC67
:1030A00002980028EFD1791E0E980870307800F051
:1030B000200040F0450007F8020D12A8C01B00F1E7
:1030C00007081498007800B1012000EB0A0101986C
:1030D00001EBE07105984144401A401E0590E00361
:1030E00006D45B462146179A059800F05DF8054422
:1030F0001498007818B15A46179990476D1CE00350
:1031000024D55B462146179A059800F04DF80544F2
:103110001CE00498002807DBDDE90301884203DD99
:103120000098405C179901E0179930205A46904763
:10313000049805F10105401C04900198401E01907F
:1031400004D12E205A46179990476D1CBAF1000100
:10315000AAF1010ADDDC05E017F8010B5A461799C0
:1031600090476D1CB8F10001A8F10108F4DC5B4642
:103170002146179A0598ABE62D0000002B000000B1
:10318000200000002DE9F041044600251E461746A8
:10319000880404D405E039462020B0476D1C641E25
:1031A000F9D52846BDE8F0812DE9F0410446002517
:1031B0001E469046C80301D5302700E0202788042A
:1031C00004D505E041463846B0476D1C641EF9D56C
:1031D0002846BDE8F0810A68531C0B6010707047E8
:1031E0002DE9F0473C4C0F468146002502B9656049
:1031F0000026DFF8E8804FF0010A68E0A26919F8BC
:10320000060008F80200521CA2616268062A5DD21C
:10321000DFE802F003181F303E4DAA2802D05528DF
:1032200007D053E06069012801D1C4F804A06561AA
:103230004CE06069401C6061552088F80000C4F8CB
:1032400018A043E00221C4E901102178084420704D
:103250003CE02178014421706169012904D0491CB6
:1032600000026161E06031E0032165616160E16855
:103270000844F7E71A4A61695054491C6161227891
:1032800010442070E068814220D104206060CEE7C5
:103290006169012906D0491C6161216901EB0020A7
:1032A000206113E00521616021690844F8E7217875
:1032B00081420BD1A068012804D0032802D108481C
:1032C00001F0DCF9257025616560B0E7761CBE422F
:1032D00094DBBDE8F0870000EC000020E84D002002
:1032E000E84C002010B506A0FFF7E8FA0748C068D0
:1032F00082880168BDE81040002002F0D5BB0000C4
:10330000436F6E6E65637465640000000C010020FD
:103310000E4910B54FF4806201F5806000F0D2FADA
:103320000BA240F25B710D4800F0D2F90F4B0CA1DB
:103330000022A3F1080000F018FB82880168002039
:1033400002F0B2FBBDE8104000F064BB4C4F00201F
:10335000777863436C69656E74000000A86B0008A1
:1033600039383736353433323100000054530020B9
:103370002DE9FC4704462020ADF80000ADF804001C
:10338000207800090A2808D2DFE800F007050913B1
:1033900007070707073CFFF7A5FFBDE8FC87A078F4
:1033A0000128FAD11AA0FFF789FA1E4901200870F6
:1033B000F3E76946204600F0DFF9064601A92046FA
:1033C00000F0A4F9BDF8004005463146BDF8048080
:1033D00022461548FCF75AFF134E4FF000093719E3
:1033E00006F80490781C42462946FCF74FFF04EB90
:1033F000080030447A1C80F8019031460BA0FFF79A
:103400005DFACAE720798028C7D000F003FBC4E743
:103410004D51545420636F6E6E6563747465642EF1
:10342000000000000C010020E84E00204D515454D3
:103430002072656365697665642066726F6D20250C
:1034400073203A202573000070B5FDF70BFE114C78
:10345000054647F230516068281A884208D90E485C
:10346000656000F034FA82880168002002F01CFBDD
:10347000A068281AB0F57A7F0BD9A56020780028BB
:1034800007D0BDE8704001230B2204A106A000F084
:103490009DBA70BD0C0100204C530020777863204A
:1034A00068656C6C6F200000313233343536373844
:1034B0003900000030B503E00189491C89B201815F
:1034C0000029F9D08288048A931CA34201D90020E4
:1034D00030BDC568531C0C0A8380AC548288C46814
:1034E000531C8380A154084630BD70B50446154670
:1034F0008088921C238A02449A4202DD4FF0FF30FA
:1035000070BDE668421C2B0AA2803354A088E36891
:10351000421CA2801D54A288E06810442A46FCF791
:103520007FFEA0882844A080A81C70BD70B51346FB
:103530000D46064600F064F80446052802D34FF015
:10354000FF3070BD04EB841000EB40010948012BF3
:1035500040F8216000EB8100456080F8093302D01B
:10356000022B05D102E001F0BDF801E001F0CAF83C
:10357000204670BD70370020012000F059FAFBE7AB
:10358000C168016000218180704730B50907090ECC
:1035900002F0010241EAC20103F00302039D41EA85
:1035A0004201848805F001021143E41EC2687F2CA9
:1035B00011DD1170E11704EB516121F07F02C36846
:1035C000A21A42F080025A70C268C909E41C9170C4
:1035D0008480C16806E05170C1688C70A41C84802E
:1035E000C168491C016030BD13B5FF230122694643
:1035F0000248FEF7B5FC00981CBD0000AC0100209D
:103600000849002000EB801202EB420201EB82022B
:1036100092F80923002A04D0401C0528F2DB4FF061
:10362000FF30704770370020014800687047000085
:10363000E8000020084910B50648C1F870010846A6
:1036400001F06AFEBDE81040012204490448FFF77A
:103650006DBF0000A5550008C04600205154000869
:10366000AC01002010B5012204490548FFF75EFFB8
:1036700002F0E4F90349086010BD0000515A000847
:10368000F0010020E8000020012202490248FFF773
:103690004DBF0000715E000834020020FDF7F0FC11
:1036A000FEF752FEFEF73AFDFEF7B6FCFEF7C8FD48
:1036B000FEF7E2FDFEF7FCFDFEF7A6FDFEF780FD3E
:1036C00000F0F2F9FEF7CEFC00F00AFAFEE7000087
:1036D0000C4810B50021C0E9002181601E22C160A4
:1036E000C0E904128161C16101620146143800F031
:1036F0005FF80549C86082880168BDE81040002075
:1037000002F0D2B9605300200C010020F0B5002473
:103710000B88012293420BDD855C571E05F07F0666
:10372000C7EBC707BE4034442D0602F10102F1D4B5
:10373000951C1444AB4215DD855C521C2E02855C41
:10374000521C35432A449A4202DB0020088009E0DB
:10375000057815F0060F03D0951CAB4202DD921CD4
:10376000944201DA0020F0BDA34201DBA31A00E07D
:103770009B1A0B801044F0BD30B50C880122944296
:1037800004DD835C02F101021B06F8D4931C9C4209
:1037900008DD835C521C1D02835C521C2B43D51830
:1037A000A54201DD002030BD0B80104430BD00007B
:1037B000F8B506460320B0800D46328A0F210F2A45
:1037C0006BD3F468B180002704F8037F0621617091
:1037D0003AA10A68C4F802208988E18020726772E1
:1037E000A88A000AA072287DE072286A08B1022027
:1037F00060722868002850D0017800294DD0FCF76D
:1038000051FD024630462968FFF76FFE002844DB71
:10381000E86820B3017811B3FCF744FD0246304656
:10382000E968FFF762FE002837DB2869FCF73AFDFC
:10383000024630462969FFF758FE00282DDB607AE2
:1038400040F004006072E96911B140F0200060723C
:10385000297EC0B201F0030140EA0110607268687D
:1038600070B1017861B1FCF71DFD02463046696810
:10387000FFF73BFE002810DB607A40F080006072AA
:10388000A86898B1017889B1FCF70CFD0246304672
:10389000A968FFF72AFE002804DA3046BDE8F840A0
:1038A000FFF76EBE607A40F04000607200231A4657
:1038B000012130460097FFF768FEF8BD4D5149736E
:1038C0006470000000230360C1600282704708B585
:1038D0000321818000210B460A4600910C21FFF74D
:1038E00054FE08BD2DE9F84F0446DDE90B974FF073
:1038F0000300DDF828801E4692460D00A0801CD0F3
:103900002878D0B10846FCF7CDFC0246294620466F
:10391000FFF7EBFD002810DBB8F1000F06DD0021FA
:103920002046FFF7C7FD388038B101E0002038801D
:10393000A088228A8119914204DD2046BDE8F84F13
:10394000FFF71EBEE168324608445146FCF768FCAA
:10395000A08843463044A080002203212046CDF8B1
:103960000090FFF712FEBDE8F88FF8B504464FF05F
:1039700003001F4616460D00A08016D02878A0B17F
:1039800000212046FFF796FD388070B12846FCF7ED
:1039900089FC024629462046FFF7A7FD002804DBE4
:1039A000A088228A411C914204D92046BDE8F840F3
:1039B000FFF7E6BDE268A18001231654002002460D
:1039C000009008212046FFF7E0FDF8BD3EB503B1A9
:1039D00000230025CDE9003513460A4C0A4601466E
:1039E0000294A4F10800FFF77DFF8288016800209F
:1039F00002F05AF803B041B2BDE8304002A0FEF731
:103A00005DBF00005453002073656E64203A20258A
:103A1000640A000001A0FEF751BF00004D5154544C
:103A200020737562736372696265642E0000000022
:103A300010B5EFF3058149B9EFF3108131B90849A9
:103A40000968022905D1EFF3118111B16FF0050466
:103A500003E0002408B101F00BFF204610BD000078
:103A60008C00002010B54FF00001EFF30582BAB9C9
:103A7000EFF31082A2B90B4A1268022A02D1EFF3C7
:103A800011826AB948B1D0E902202AB1202807D3AF
:103A9000104602F03DFA02E010B902F02BFA01469E
:103AA000084610BD8C000020EFF3058058B9EFF3F5
:103AB000108040B909490868022801D030B109E0F6
:103AC000EFF3118030B16FF00500704701200860FE
:103AD000002070474FF0FF30704700008C0000203E
:103AE00010B5EFF3058060B9EFF3108048B90B49CA
:103AF0000868022802D0012806D00BE0EFF31180FD
:103B000040B16FF0050010BD0220086001F018FF01
:103B1000002010BD4FF0FF3010BD00008C000020D1
:103B200070B505464FF00004EFF30580A0BBEFF33E
:103B3000108088BB19480068022802D1EFF3118079
:103B400050BB0DB1686800E00020C10701D001261C
:103B500000E0002600071FD46DB1D5E9021021B1A5
:103B6000502819D31EB1042002E020B114E0012036
:103B700002F080FA05E00EB1042000E0012002F01E
:103B80006EFA040008D00DB1296800E0002101F0B0
:103B90000DFE0EB144F00104204670BD8C000020E3
:103BA000F8B5144603460E464FF00005EFF30580C6
:103BB000E8BBEFF31080D0BB24480068022802D194
:103BC000EFF3118098BB93B39E423DD84CB1A068EF
:103BD0000028E06803D0502836D3012002E008B165
:103BE00032E00020012B05D010B31846A26802F085
:103BF00016FA20E040B10320009000221146012077
:103C0000A36802F068FA04E003220021012002F018
:103C10003EFA050018D086B100231A46194602F074
:103C2000D1FA012809D0284601F0D4FD00250BE087
:103C3000184602F0D7F9050006D00CB1216800E063
:103C40000021284601F0B2FD2846F8BD8C00002076
:103C5000F0B585B00B464FF00004EFF305810394F7
:103C6000A1BBEFF3108189BB21490968022902D168
:103C7000EFF3118151BB48B3802618218DF8104015
:103C800004AD42B3176807B13D4697691FB1394685
:103C90007F1E382F02D21779FF0702D0002005B00F
:103CA000F0BD576907B1BE08D2F808C0BCF1000FDB
:103CB0000DD0D4685C2C18D312693AB137B18DE8B5
:103CC00006103246294602F08EFC03900DE0D768BC
:103CD0005FB912694AB903AACDE90012B2B2294606
:103CE00002F054FC012800D003940398D7E70000A9
:103CF0008C0000202DE9FC411C46174688460646EC
:103D00004FF00005EFF3058078BBEFF3108060BB48
:103D100017480068022802D1EFF3118028BB26B3B0
:103D2000082000F0F7FB03001FD0B8F1000FC3E933
:103D3000006711D001220F4E00208CB1216801B123
:103D40000846A16851B1E468302C0ED3CDE900617A
:103D5000012102F0DFFD07E00022ECE7E16821B974
:103D60000121009602F0BCFD05462846BDE8FC8115
:103D70008C0000204D2400082DE9F041134C0F4623
:103D8000054666692068001D01F016FC681C07D115
:103D900037B12168BDE8F0410D48091D01F05CBC58
:103DA00020683544B5424560216805D2A068BDE869
:103DB000F041091D01F038BC6068091D01F034FCB8
:103DC000206B854200D22563BDE8F0813C000020D5
:103DD0007C0800202DE9F041054601F049FC2D4CFE
:103DE0002069401C206120682B4F10B1E06930B37E
:103DF0002BE025602069012827D1002606EB8600EC
:103E000007EB800001F002FC761C382EF6D3234825
:103E100001F0FCFB2148143001F0F8FB1F4828306A
:103E200001F0F4FB1D483C3001F0F0FB1B48503022
:103E300001F0ECFB194860601430A06005E02068D8
:103E4000E96AC06A884200D82560E06A401CE062E6
:103E50006864E86AA169884200D9A06100EB80002B
:103E600007EB8000291D01F0F7FB01F021FCE06960
:103E700000280CD02068E96AC06A884207D2084945
:103E80004FF080500860BFF34F8FBFF36F8FBDE8D6
:103E9000F08100003C000020CC0300202C08002012
:103EA00004ED00E038B501F0E3FB104CA068C8B9A0
:103EB0000F4801F0ABFB0E48143001F0A7FB0C4893
:103EC0002060143060600A4B00202833009003F11A
:103ED000500210210A2002F0FEF8A06010B105A1E6
:103EE00001F064FCBDE8384001F0E2BB780000203E
:103EF00090080020546D72510000000030B4026C34
:103F00000B46002A0BD0C1681144C1604468A1422D
:103F100001D30168C16030BC1846FCF781B930BCE0
:103F200070472DE9F041856B174604460026026C68
:103F300082B1C7B1E068FCF773F9E168206C091A37
:103F4000E1602268914202D26168081AE060022FA3
:103F500016D017E02068A8B9606802F0E7FB0646B3
:103F6000002060600EE0A068FCF75AF9216CA068A0
:103F70000844A0606168884204D32068A06001E022
:103F800005B16D1E6D1CA5633046BDE8F08110B50E
:103F9000044690F8590058B101280CD002280FD0DF
:103FA000502080F31188BFF34F8FBFF36F8FFEE770
:103FB000206B01F091FB2046BDE8104001F08CBB66
:103FC00010BD00000F4842F21071420705D0C01D1D
:103FD0000C4A20F00700821A891A0B4A0023014478
:103FE000C2E900030839103A21F0070111604B6063
:103FF0000B600B1AC0E9001393604FF00040536050
:10400000D060704760100020A0000020144E154CB6
:10401000A6F29C474FF08058DFF84C9012E000BFAA
:1040200001F026FBF068C568281D01F0C5FA20697B
:10403000401E2061E068401EE06001F039FB284628
:10404000FFF7A5FFE0680028EAD138680128F9D910
:10405000C9F80080BFF34F8FBFF36F8FF2E7000006
:10406000680800203C00002004ED00E0002807D094
:104070000021416001600B460A46C16002F0A2B80F
:104080007047000070B51D46049C51B1C4F8002073
:10409000C4E90F010121204602F050F884F84C5089
:1040A00070BD2460F4E72DE9F0470E46DDE9098490
:1040B0001746824691009946089DA522206BFCF781
:1040C000C1F86FF00301206B01EB8701084420F079
:1040D0000707780707D0502080F31188BFF34F8F70
:1040E000BFF36F8FFEE72218315C82F83410315C29
:1040F00011B1401C1028F6D3002684F84360382DF7
:1041000000D33725E562C4E91356201D01F089FA72
:1041100004F1180001F085FA2461C5F138006462E9
:10412000A061666584F858604A465146384600F0FA
:104130006FFA2060B8F1000F01D0C8F80040BDE868
:10414000F0872DE9F0471E46DDE9089417460D007B
:1041500080460ED0002C14D0FFF7A4FEC4F80080D7
:10416000C4E90657C4E90869201DBDE8F04701F01D
:1041700058BA502080F31188BFF34F8FBFF36F8F71
:10418000FEE7BDE8F087000030B5114900E01146B8
:104190000A688242FBD34B685C18844203D14068B2
:1041A00018444860084643681C18944209D1084CDA
:1041B000103C2468A24209D052681A4442600A683E
:1041C00012680260814200D0086030BD0460F9E7E7
:1041D000A000002070B5002441600B4D00619142A9
:1041E00006D8D11A8269914206D2011D686807E09B
:1041F0009A4203D2994201D3012403E0011D2868A9
:1042000001F012FA204670BD7800002010B5044677
:1042100001F02EFAA06B28B15FF0000401F048FA1B
:10422000204610BD0124F9E730B589B0304D55E086
:104230000498002806DADDE90601059A90470498FB
:1042400000284BDB069C606910B1201D01F0B4F919
:1042500002A800F0B9F8024604980A283ED2DFE826
:1042600000F00505053D263705053D260598A169A1
:10427000034601442046FFF7ADFF00B3616A2046C4
:104280008847E069012829D1002000900598A1699C
:10429000002342181946204602F084FB78B95020CA
:1042A00080F31188BFF34F8FBFF36F8FFEE7059840
:1042B000A06128B1811813462046FFF78BFF0DE05F
:1042C000502080F31188BFF34F8FBFF36F8FFEE74D
:1042D00094F82C0010B9204601F0FEF9002204A940
:1042E000A86802F07DF80028A2D109B030BD000016
:1042F000780000202DE9FC410F46054601F064FBE3
:1043000001A800F061F80446019818B102F086FA9D
:10431000BDE8FC81224EAFB170680068A8B30027E9
:10432000291B3A46B06801F081FA02F077FA0028BA
:10433000EED11C494FF080500860BFF34F8FBFF3A0
:104340006F8FE5E7A542EBD802F068FA30682746A0
:10435000C068C468201D01F02FF9E069012810D160
:10436000A0692B4641193A462046FFF733FF40B17A
:1043700000200346014600902A46204602F012FB28
:1043800020B1616A20468847C2E707E0502080F3E9
:104390001188BFF34F8FBFF36F8FFEE70127BFE791
:1043A0007800002004ED00E006484168096829B162
:1043B0004168C968C9684968016370474FF0FF31B7
:1043C000FAE700003C00002070B5054602F044F911
:1043D000064E04463069844203D200F009F80120F9
:1043E00000E0002028602046346170BD7800002085
:1043F000F8B5194D1FE0C068C4680668201D01F0BB
:10440000DBF8616A20468847E069012813D1A0697A
:104410003044B04206D924616060211D286801F053
:1044200003F908E00020034601460090324620468A
:1044300002F0B8FA38B1286801680029DBD1696850
:10444000C5E90010F8BD502080F31188BFF34F8FED
:10445000BFF36F8FFEE70000780000200848406837
:10446000401C4FF0500080F3118804D0BFF34F8FF1
:10447000BFF36F8FFEE7BFF34F8FBFF36F8FFEE782
:10448000A8000020074C2068016841B1C0680021E5
:10449000D0F80000FFF72EFFFFF7C6FEF3E701217B
:1044A0000020F7E7780000202DE9F041044601F0F4
:1044B000DFF894F9455004F1240609E0606A48B138
:1044C000304602F073F908B101F000FA6D1E6DB2CA
:1044D000002DF3DC4FF0FF3684F8456001F0E8F87A
:1044E00001F0C6F894F9445004F1100709E020697E
:1044F00048B1384602F05AF908B101F0E7F96D1EEB
:104500006DB2002DF3DC84F84460BDE8F04101F0A9
:10451000CFB800002DE9F0410546002701F054FA1C
:10452000314E306808B9FFF74DFDF06805424BD1B8
:10453000C5B3083568070ED005F00700C0F10800C4
:104540000544680707D0502080F31188BFF34F8FD0
:10455000BFF36F8FFEE72DB37068854234D82248D1
:10456000103001460C6801E020460C466168A94203
:1045700002D221680029F7D131688C4224D0076823
:104580002168016060680837411B10290FD9601944
:10459000420708D0502080F31188BFF34F8FBFF33C
:1045A0006F8FFEE710E041606560FFF7EDFD616829
:1045B0007068401A7060B268904200D2B060F068D3
:1045C00001430020C4E9000102F028F9780707D070
:1045D000502080F31188BFF34F8FBFF36F8FFEE73A
:1045E0003846BDE8F08100009000002010B50400BE
:1045F00006D001F03DF8246A01F05AF8204610BDBB
:10460000502080F31188BFF34F8FBFF36F8FFEE709
:1046100010B5031F4FF080741C601B1F21F00101B7
:104620001960191F024B0B60143940380A6010BD25
:104630005D4400080D4D4FF4967401222021284658
:10464000FCF70AFD2046FFF7F3F900222021284657
:10465000FCF702FD2046FFF7EBF90120FFF7E8F930
:104660000B2103A001F01CFCE7E70000001401404F
:1046700068656C6C6F20776F726C64002DE9F04791
:104680000088002647BA154C4FF00108144D0EE083
:1046900006EB460054F82010B94207D104EB80091C
:1046A000C9F80480FCF7DEFCC9F80800761C28680D
:1046B0008642EDDB00EB400044F8207004EB800004
:1046C000C0F80480FCF7CEFC296801EB410204EB42
:1046D0008202491C90602960BDE8F08738480020BC
:1046E000E400002010B5044600684FF4007204F1A5
:1046F0000801FDF709FC20680068C16841F010015D
:10470000C16010BD10B504460068012204F1080123
:10471000FDF70FFC20680068C16841F02001C1600E
:1047200010BD00002DE9F35F52A10098FBF79CFD3E
:1047300004270325524C4FF005094FF002080026CC
:104740004FF0060A4FF0010B08B1676036E04DA14B
:104750000098FBF789FD10B1C4F804902EE04BA13E
:104760000098FBF781FD10B1C4F8048026E049A150
:104770000098FBF779FD20B949A10098FBF774FD7B
:1047800008B165601AE048A10098FBF76DFD20B9FB
:1047900047A10098FBF768FD08B1A6600EE047A1AD
:1047A0000098FBF761FD10B1C4F804A006E044A135
:1047B0000098FBF759FD08B1C4F804B041A1009876
:1047C000FBF752FD10B12670BDE8FC9F3FA1009899
:1047D000FBF74AFD10B184F800B0F5E73EA1009860
:1047E000FBF742FD10B184F80080EDE73CA1009892
:1047F000FBF73AFD08B12570E6E73BA10098FBF70F
:1048000033FD08B12770DFE73AA10098FBF72CFDD4
:1048100010B184F80090D7E739A10098FBF724FD88
:1048200010B184F800A0CFE737A10098FBF71CFD7A
:1048300008B1072005E037A10098FBF715FD10B17E
:1048400008202070C0E736A10098FBF70DFD08B1E5
:104850000A20F6E735A10098FBF706FD08B10B200A
:10486000EFE734A10098FBF7FFFC0028ACD00C2048
:10487000E7E700005749464920474F542049500078
:10488000D8000020414C5245414459004552524FF6
:1048900052000000434F4E4E454354454400000033
:1048A000434F4E4E45435400434C4F534500000088
:1048B000444953434F4E4E45435400003E000000D0
:1048C0004F4B00005246504F5745520043574D4FF3
:1048D00044455F435552000043494653520000008F
:1048E00043575141500000004357444843505F43F1
:1048F00055520000434950535441525400000000A7
:104900004349504D55580000434950534552564570
:1049100052000000434950434C4F534500000000F3
:1049200043574A41505F4355520000004349504DA0
:104930004F44450043495053454E440010B504468A
:1049400090F86A0100F00302012A29D0022A2DD131
:10495000412906D0422906D0432909D044291CD137
:1049600012E0002100E00121204600F087FC14E065
:10497000208FE18E884210D2211D415C204600F03C
:10498000BFF8208F401C07E0208F30B1082120465F
:1049900000F0B6F8208F401E208794F86A0101E0ED
:1049A0005B2904D020F0030084F86A0110BD20F0D8
:1049B0000300801CF8E790F86A1121F00301491CFC
:1049C00080F86A11704770B50446C08E00284BD03D
:1049D000228F0023211D82420BD1401E80B2E0862F
:1049E000521E228743542046BDE87040012100F04A
:1049F00065B8002A38D0002006E02244051D565D27
:104A0000C51C401C565500B2E58E228FAD1A85425A
:104A1000F3DCE08E401E80B2E086228F521E228799
:104A200043540821204600F06BF8B4F9385006E0F2
:104A300060190179204600F063F86D1C2DB2E08EFC
:104A4000A842F5DC2021204600F05AF8E08E218FA4
:104A5000401A401C05B205E00821204600F050F83D
:104A60006D1E2DB2002DF7DC70BD000010B500F0FA
:104A700041FB002804D0BDE8104002A100F02CB892
:104A800010BD00001B5B324A1B5B31480000000078
:104A900070B50546C08E298F401A04B205E020216A
:104AA000284600F02DF8641E24B2002CF7DCE98EB5
:104AB0002846BDE8704000F001B8000070B50C4613
:104AC000054603E003A1284600F006F8641EA4B2E0
:104AD000F8D270BD0820080070B50646D0F8700105
:104AE00000240D4600280AD005E0D6F870116D1C90
:104AF0008847641CA4B228780028F6D1204670BDEF
:104B0000D0F87021002A01D00846104770470000F5
:104B100070B50646D0F85C0100EB011530462968F7
:104B2000FFF7DAFFC0F1160004B2002C00DC042409
:104B30000AA13046FFF7D0FF641E24B2002CF7D143
:104B400007A13046FFF7C8FF3046A968FFF7C4FF4A
:104B50003046BDE8704003A1FFF7BEBF2000000053
:104B60002D2D00000D0A00002DE9FE430C0023A2AC
:104B7000804607CA8DE8070025464FF00A076E46B3
:104B800004D521A14046FFF7A7FF6D420A2055B189
:104B9000B5FBF0F100FB1151B5FBF0F57F1EFFB244
:104BA0003031F155F3E7F0194CB10021411A40467C
:104BB000FFF792FF082100208DF808000DE0012189
:104BC000F4E700BF04F00F00092801D9573000E0D6
:104BD0003030491EC9B224097054002CF2D10BA107
:104BE0004046FFF779FF69464046FFF775FF09A188
:104BF0004046FFF771FFBDE8FE83000030303030E3
:104C000030303030303000002D0000002C20307863
:104C1000000000000D0A00002DE9F04104460026C6
:104C2000C08E37464FF0010800287AD0221D411C63
:104C30000025E1868554A4F85A51B4F9580100EBD7
:104C4000C00101EB001004EB400011462A30FBF7D5
:104C500030FB10B3B4F9580100EBC00101EB0011B7
:104C600004EB4100211D5C3000F014FC20B1B4F8CD
:104C70005801401CA4F85801B4F85601401C81B2F8
:104C8000A4F85611052902D90520A4F85601B4F953
:104C90005801052801DBA4F8585100202BE03FB94A
:104CA00021180979202920D009291ED02C291CD0AF
:104CB00021180A79CAB1222A01D127B10027B8F1F7
:104CC000010F02D009E00127F9E70A1D04EB860372
:104CD000761CF6B24FF00008DA630A795C2A08D134
:104CE000497931B1401C80B203E021184FF001082E
:104CF0000D71401C80B2E18E8142D0D8E5862587B7
:104D00007EB12CA12046FFF7E7FE2BA1D4F85C7101
:104D1000E06BFBF7CEFA010004F13C0802D000255D
:104D20001BE023E094F86A01414640F0040084F857
:104D30006A01304600F040FA94F86A0120F004005D
:104D400084F86A0112E000BF07EB05100168E06B10
:104D5000FBF7AFFA80B16D1CADB2B4F86001A842A8
:104D6000F2D8174881692046FFF7B6FE2046216831
:104D7000BDE8F041FFF7B0BE94F86A01424640F04A
:104D8000040084F86A0107EB05103146406800F022
:104D900001F994F86A11054621F0040184F86A11BA
:104DA00008A12046FFF798FE29462046FFF7DCFEC3
:104DB000DCE700000D0A000068656C700000000070
:104DC000B400002052657475726E3A200000000035
:104DD000411C00200A785C2A01D0104670474978AF
:104DE0006E290FD004DC3029F8D0622904D105E007
:104DF000722905D0742907D00846704708207047EB
:104E00000D2070470A207047092070472DE9F041B6
:104E10000746002300780A2601221D461C462D283D
:104E200008D000203844002190F800C0BCF1300FB9
:104E300004D01FE04FF0FF320120F3E741787829DA
:104E400007D0582905D0622905D0422903D0022174
:104E500010E003210EE001210CE000BF90F800C03B
:104E6000BCF12E0F06D190F801C0BCF1000F01D0AB
:104E7000042111E010F801CBBCF1000FEED10129A3
:104E800008D0022903D0032906D1102603E0082602
:104E9000012301E0022602233B44501C02D00020E3
:104EA00003441FE00120FBE72E2805D0A0F13007C6
:104EB000092F03D8F8B20FE0012412E0A0F1610736
:104EC000052F01D8573804E0A0F14107052F02D87B
:104ED0003738C0B200E0002005FB060504EB840073
:104EE00044005B1C18780028DED1042913D194B14A
:104EF0001046FBF772FB06462046FBF777FB04469D
:104F00002846FBF773FB2146FBF713FA3146BDE851
:104F1000F041FBF7DCB905FB02F0BDE8F0810000D1
:104F20002DE9F041017827290AD02D2904D000BFAE
:104F3000A1F13002092A0AD8BDE8F041FFF766BFA7
:104F40004278002AF4D0BDE8F041FFF741BFF9B143
:104F5000002605460446374622290AD16C1C254600
:104F600007E05C280CD0222810D0A855761CB6B2D9
:104F7000641C20780028F4D1AF552846BDE8F081A4
:104F8000601EFFF725FFA855641CEFE7AF55EDE75E
:104F90000020F3E72DE9FE4F1446054609297DD28E
:104FA000DFE801F0A4050A121F314862820003B055
:104FB000AC46BDE8F04F60475068FFF7B1FF03B063
:104FC000AC46BDE8F04F6047A068FFF7A9FF064672
:104FD0006068FFF7A5FF03B03146AC46BDE8F04F6F
:104FE0006047E068FFF79CFF0746A068FFF798FF5F
:104FF00006466068FFF794FF03B03A463146AC4678
:10500000BDE8F04F60472069FFF78AFF0746E06878
:10501000FFF786FF8046A068FFF782FF06466068BC
:10502000FFF77EFF03B03B4642463146AC46BDE843
:10503000F04F60476069FFF773FF07462069FFF78D
:105040006FFF0646E068FFF76BFF8146A068FFF739
:1050500067FF80466068FFF763FF33464A46414674
:105060000097A847BDE8FE8FA069FFF759FF824669
:105070006069FFF755FF81462069FFF751FF07463A
:10508000E068FFF74DFF0646A068FFF749FF80463E
:105090006068FFF745FF3B46324600E026E0CDE979
:1050A000009A4146A847DDE7E069FFF739FF8346EC
:1050B000A069FFF735FF82466069FFF731FF81463F
:1050C0002069FFF72DFF8046E068FFF729FF0746BC
:1050D000A068FFF725FF06466068FFF721FF8DE80F
:1050E000000E43463A463146A847BBE74FF0FF3033
:1050F000B8E700000849002051F8202032B192F8AA
:105100006A21520702D551F820007047401C00B2B6
:105110000528F1DB00207047AC4600202DE9F04166
:10512000044690F86A010E4680070DD02046FFF72E
:1051300005FC94F86A01092E38D020F0080000BF61
:1051400084F86A01BDE8F08100200546D4F8647156
:105150000DE000BF17F83510B14206D107EBC500CE
:10516000416809B12046884701206D1C2DB2B4F872
:105170006811A942EEDC0028DBD10E4F002500BFEC
:1051800017F83510B14206D107EBC500416809B1E7
:105190002046884701206D1C2DB2062DF0D3002833
:1051A000C7D13146204600F0F7F8C2E740F00800CA
:1051B000C6E70000246B00082DE9F041884603464D
:1051C000FFF798FF050017D0254F012B05D0022BC4
:1051D00012D10024D5F85C611AE03969FFF77CFC34
:1051E000002405E021462846FFF792FC641CA4B287
:1051F000B5F86001A042F5D8BDE8F08106EB0410D7
:105200000168D8F80400FBF754F838B1641CE4B224
:10521000B5F86001A042F1D8B9691CE011A1284697
:10522000FFF75AFC06EB041428462168FFF754FCEC
:1052300010A12846FFF750FC2846A168FFF74CFC58
:105240000DA12846FFF748FCE1680029D4D0284684
:10525000FFF742FC08A12846BDE8F041FFF73CBC3F
:10526000B4000020636F6D6D616E642068656C70C2
:10527000202D2D003A0D0A000D0A000070B50446DD
:10528000002561B1012909D1B4F85A01401C00B2CE
:10529000A4F85A01002819DDA4F85A5170BDB4F9D8
:1052A0005A21501EA4F85A01B4F85611B4F9580105
:1052B000814201DD0B4600E003465B429A4205DC79
:1052C000814200DD08464042A4F85A012046FFF71B
:1052D000DFFBB4F95A01E0B1B4F9581108440521D3
:1052E000401D90FBF1F201FB120000EBC00101EB4D
:1052F000001004EB4001201D5C3100F0CBF8E0868B
:105300000028CBD02087211D2046BDE87040FFF744
:10531000E3BBE586258770BD10B504460020E08616
:105320002087A4F85601A4F85801A4F85A0194F86B
:105330006A01154920F00F0084F86A010FA020606F
:10534000002000BF51F82020AAB1401C00B205285F
:10535000F8DB0E4801682046FFF7BEFB20462168B7
:10536000FFF7BAFB0A480B49C4F85C01081A0009A8
:10537000A4F8600110BD41F82040EAE70D0A6C6511
:10538000747465723E3E0000AC460020B4000020FC
:10539000786E0008986E000870B50A00044644D084
:1053A000E08E312842D2238F211D98420BD1431C1D
:1053B000E3864254208F1146401C20872046BDE8DA
:1053C0007040FFF79DBBC01A06E0238FC51C234425
:1053D0005E5D051D401E5E5500B20028F5DC208F85
:1053E000431C23874254E08E0021401C80B2E0869B
:1053F00020440171208F401E05B206E0601901793A
:105400002046FFF77DFB6D1C2DB2E08EA842F5DC37
:10541000218F80B2401A05B205E008212046FFF72F
:105420006FFB6D1E2DB2002DF7DC70BD0748C16902
:105430002046FFF751FB20462168FFF74DFB211D59
:105440002046FFF749FBE08E208770BDB4000020A6
:1054500070B50D460646002404E0315D0348FFF7B1
:105460005DFE641CAC42F8DB70BD0000C04600204D
:1054700030B504460020024605E0AB4209D1401C8D
:10548000521C80B292B2A35C002B02D08D5C002D26
:10549000F3D130BD0246002002E01354401C80B21C
:1054A0000B5C002BF9D10021115470472DE9F84F06
:1054B000C18E4FF00008D0F85C7104464FF03209FD
:1054C0004546002957D0C34604F1040A5E4601F858
:1054D0000AB026E007EB061000900168201DFFF7D8
:1054E000C7FFE18E88421AD1ADB1012D03D12CA1A5
:1054F0002046FFF7F1FA41462046FFF709FB0098E6
:10550000016807EB08100068FFF7B2FF49468145C4
:1055100000D8084681466D1C1FFA86F8ADB2761C8D
:1055200036B2B4F86001B042D4DC002D35D0012D84
:1055300002D12046FFF7ACFA07EB08100168201DE6
:10554000FFF7A8FFE086012D0AD941462046FFF764
:10555000DFFA20462168FFF7BFFA4846A4F83690E4
:1055600082B2211D02F80AB0E08E20872046BDE8F5
:10557000F84FFFF7B1BA94F86A01002140F0040037
:1055800084F86A010120FFF717FE94F86A0120F001
:10559000040084F86A012168E8E7BDE8F88F00009C
:1055A0000D0A000001B5FF23012269460148FCF7FE
:1055B000D7FC08BDAC010020D0E9013201699A6036
:1055C000D0E901235A604A68824201D182684A6068
:1055D000002202610868401E0860086870470000E9
:1055E000034B036003F15C0008608020106070478B
:1055F000A8090020044B036003F15C0008604FF42D
:105600008070106070470000040C002000F1080159
:105610004FF0FF32C0E90112C16001610021016059
:10562000704700210161704730B50B685A1C02D0E9
:1056300000F1080202E0026904E02246546825688D
:105640009D42FAD953684B6099608A605160086145
:105650000168491C016030BD42684A6093688B60F4
:1056600093685960916008610168491C0160704746
:10567000502080F31188BFF34F8FBFF36F8F0A491B
:105680004868401C486001280CD10848006810F0A8
:10569000FF0F07D0502080F31188BFF34F8FBFF367
:1056A0006F8FFEE770470000A800002004ED00E0C7
:1056B0000849486828B1401E486001D180F311882C
:1056C0007047502080F31188BFF34F8FBFF36F8F67
:1056D000FEE70000A800002070B5002827D0144D78
:1056E000A0F108046168E868014207D1502080F306
:1056F0001188BFF34F8FBFF36F8FFEE722683AB177
:10570000502080F31188BFF34F8FBFF36F8FFEE7F8
:105710008143616000F058F9606869680844686016
:105720002046FEF731FDBDE8704001F077B870BD4E
:10573000900000204FF0E0200021016181610549C7
:105740004FF47A720968B1FBF2F1491E41610721F9
:10575000016170473800002010B5FAF73BFD114990
:1057600010280ED300F1E02090F8F0030A78904260
:1057700007D2502080F31188BFF34F8FBFF36F8F94
:10578000FEE709480068896800F4E060884207D9AC
:10579000502080F31188BFF34F8FBFF36F8FFEE768
:1057A00010BD0000A80000200CED00E010B5084B73
:1057B000002200BF53F832401CB1521C082AF9D312
:1057C00010BD43F8321003EBC201486010BD000069
:1057D0008C03002010B504000AD000F013F894F8F0
:1057E000460000280CD12046BDE81040FFF774BFEA
:1057F000502080F31188BFF34F8FBFF36F8FFEE708
:1058000010BD0000084A002102EBC1035B6883421F
:1058100006D1002042F8310002EBC1014860704718
:10582000491C0829F0D370478C03002070B5154639
:105830000E460446FFF71CFF94F944100020491C53
:1058400001D184F8440094F94510491C01D184F831
:105850004500FFF72DFFA06B28B92A46314604F119
:10586000240000F051F82046BDE87040FEF71CBE51
:1058700010B5020014D00F48806B38B1502080F36F
:105880001188BFF34F8FBFF36F8FFEE700F09CF8D6
:1058900000211046FEF770FA00F0C0FF002807D183
:1058A00005494FF080500860BFF34F8FBFF36F8FF3
:1058B00010BD00003C00002004ED00E002498A6AAF
:1058C00002604969416070473C00002001490120A5
:1058D000486270473C00002010B50C4650B10949A1
:1058E00009681831FFF7A0FE2046BDE810400121ED
:1058F000FEF742BA502080F31188BFF34F8FBFF3F9
:105900006F8FFEE73C00002070B514460D4668B16D
:105910000A4909681831FFF79FFE0CB14FF0FF35B7
:1059200021462846BDE87040FEF726BA502080F395
:105930001188BFF34F8FBFF36F8FFEE73C0000204D
:1059400030B587B00024039405AA04A903A80494E1
:10595000FFF746FEDDE903010094CDE901100023C5
:1059600015A11748059A00F03EFE164D0028686301
:105970001FD000F0E7FF012809D0401C19D15020AA
:1059800080F31188BFF34F8FBFF36F8FFEE7502076
:1059900080F31188BFF34F8FBFF36F8F4FF0FF304D
:1059A00028630120E8616C6107B0BDE8304000F079
:1059B000C5BA07B030BD000049444C4500000000A6
:1059C0000D4000083C0000200248816B491C8163A7
:1059D000704700003C000020164810B5816B11B1E3
:1059E0000121416210BD002141628169124A01E03A
:1059F000B9B1491E01EB810352F82330002BF7D0D7
:105A000001EB810302EB830202F1080453685B6837
:105A10005360A34201D15B685360DA680260816120
:105A200010BD502080F31188BFF34F8FBFF36F8FED
:105A3000FEE700003C000020CC03002010B5034C22
:105A40000020A06000F09CF9A06810BDD8000020E4
:105A500010B504460848006828B12046BDE810404B
:105A600089B2FDF785BC2046FEF75CFE2146BDE805
:105A7000104002A0FCF722BFE800002025730D0AA9
:105A800000000000012210210648FBF7E5FA4FF460
:105A90007A70FDF7CDFFFDF7E5FD0120FDF7C8FFAA
:105AA000FBE70000000801400846114600F060B91D
:105AB00010B5082106A000F04BF94FF47A70FDF7FD
:105AC000B7FF06484068012800D0002010BD000044
:105AD00041542B5253540D0A00000000D8000020FE
