:020000040800F2
:10000000F05B0020DD010008732A0008BD2700080E
:10001000712A000805110008B52F00080000000033
:100020000000000000000000000000004501000882
:100030005B1100080000000089010008A52A0008E3
:10004000F7010008F7010008F7010008F7010008B0
:10005000F7010008F7010008F7010008F7010008A0
:10006000F7010008F7010008F7010008F701000890
:10007000F70100080D110008F70100081911000828
:1000800025110008F7010008F7010008F701000832
:10009000F7010008F7010008F7010008F701000860
:1000A000F7010008312B0008F7010008F7010008EC
:1000B000F7010008F7010008F7010008F701000840
:1000C000F7010008F7010008F7010008F701000830
:1000D000F7010008792F0008912F00089D2F0008D4
:1000E000F7010008F7010008F7010008F701000810
:1000F000F7010008F7010008F7010008F701000800
:10010000F7010008F7010008F7010008F7010008EF
:10011000F7010008F70100083D2B0008F70100086F
:10012000F7010008F7010008F7010008F7010008CF
:10013000DFF80CD000F062FD00480047CD4A00080F
:10014000F05B0020224B19680868B0E8F00F80F3DC
:100150000988BFF36F8F4FF0000080F311884EF0D5
:100160000D0E70470000000006480068006880F32C
:10017000088862B661B6BFF34F8FBFF36F8F00DFA1
:1001800000BF00BF08ED00E0EFF30980BFF36F8F01
:100190000F4B1A6820E9F00F106008B54FF05000BF
:1001A00080F31188BFF34F8FBFF36F8F06F024FCED
:1001B0004FF0000080F31188BDE808401968086816
:1001C000B0E8F00F80F30988BFF36F8F704700BF6E
:1001D00034000020EFF30580704700000648804798
:1001E00006480047FEE7FEE7FEE7FEE7FEE7FEE71C
:1001F000FEE7FEE7FEE7FEE72F2B000831010008CF
:10020000202A04DB203A21FA02F00021704721FA6B
:1002100002F3D040C2F120029140084319467047D2
:1002200040EA01039B0703D009E008C9121F08C078
:10023000042AFAD203E011F8013B00F8013B521EF8
:10024000F9D27047D2B201E000F8012B491EFBD26F
:1002500070470022F6E710B513460A4604461946D1
:10026000FFF7F0FF204610BD30B505462A460B4685
:1002700012F8010B13F8014B08B1A042F8D01CB1E1
:10028000002802D06D1CF1E7284630BDCAB2401EDE
:1002900010F8011F8A4202D00029F9D100207047CE
:1002A000421C10F8011B0029FBD1801A704710B5C1
:1002B000002200E0521C835C8C5CA34201D1002B25
:1002C000F8D1D8B2E1B2401A10BD034611F8012BA3
:1002D00000F8012B002AF9D11846704770B50F4D70
:1002E00000B92868002412E00A4602E09E4203D0CA
:1002F000521C1378002BF9D1DAB2224305D02BB16E
:1003000024B1002100F8011B04E00446401C0678DB
:10031000002EE9D12860204670BD0000D4000020E6
:100320000FB400B58DB010A909900B9000914FF05B
:10033000FF300A9000200C90054806900548079071
:100340006A4609A80F9900F003FA0DB05DF814FB96
:100350006D0700088B0700082DE9FF5F1D464FF071
:10036000FF3BD5E9014691465F464FF00008A96979
:100370007F1C01988847296A824688470028F6D161
:10038000BAF1FF3F0CD024F4C064002E19DD6006E2
:1003900014D5BAF12B0F09D0BAF12D0F0ED103E00D
:1003A000584604B0BDE8F09F44F48064A9697F1CFE
:1003B00001988847761E8246002E02DDBAF1300F82
:1003C00003D0B9F1000F26D032E0A969761E44F4BB
:1003D00000747F1C019888478246002E05DDBAF123
:1003E000780F06D0BAF1580F03D0B9F1000F10D032
:1003F0001EE0B9F1000F02D0B9F1100F18D1A969B0
:10040000761E24F400747F1C0198884782461020D1
:1004100002E0082000E00A20814609E008FB090804
:10042000A969761E44F400747F1C019888478246AF
:10043000002E05DD4946504600F076F90028EDDA39
:10044000E96901988847A00502D46FF00100A8E788
:10045000E00725D1600613D5600502D5C8F100007C
:1004600000E0404629680A1D2A600968220501D576
:10047000087015E0220701D5088011E008600FE040
:100480002868011D29600068210502D580F80080D8
:1004900006E0210702D5A0F8008001E0C0F8008046
:1004A00038467EE72DE9FF5FD2E901A74FF000084B
:1004B000916999461446DDF838B046460198884758
:1004C000054659EA0B0005D009E0A169761C0198A0
:1004D00088470546216A284688470028F5D1681CC8
:1004E00003D05FEACA7005D015E04FF0FF3004B0CA
:1004F000BDE8F09F2068011D2160D0F800800AE06F
:100500005FEACA7001D108F8015BA169761C7F1E01
:10051000019888470546002F1ADD681C18D0B9F1EC
:10052000000F0DD0E81705EBD060421120F01F003E
:1005300059F822102A1A012090400142E0D107E028
:10054000BBF1000FDCD1216A284688470028D7D0AC
:10055000E16901988847BBF1000F07D1002E05DD46
:100560005FEACA7002D1002188F80010A068B84282
:1005700003DDBBF1000F03D017B16FF00100B6E748
:100580003046B4E770B5064603F0C6FD046805467C
:100590000A220021304600F009F92C6070BD80EA83
:1005A000010210B502F00043400022D04A001FD0E3
:1005B000010E01EB1261C0F35600C2F3560240F483
:1005C000000042F40002A0FB022000047F39140462
:1005D00000D0401C50EA124001D44000491EC2B273
:1005E0000C0604EBD010401C4008802A02D003E027
:1005F000002010BD20F00100002900DA002018437F
:1006000010BD30B480EA010202F0004530F0004233
:1006100021F0004013D090B1C30DD40DC2F31601E8
:10062000C0F31600E41A41F4000140F400027D34E6
:10063000914201D3641C00E04900002C02DA30BC76
:10064000002070474FF400000023914201D3891A23
:10065000034340084FEA4101F7D151B1914202D121
:100660004FF0004105E002D24FF0010101E06FF0D0
:10067000010103EBC450284430BC00F0CFB8C10FD7
:1006800080EAE0700844CA079623002100F0CFB842
:1006900096230022114600F0CAB830B50B46014639
:1006A00000202022012409E021FA02F59D4205D311
:1006B00003FA02F5491B04FA02F52844151EA2F1BB
:1006C0000102F1DC30BD2DE9F05F054600209246C5
:1006D0009B4688460646814640241BE02846414604
:1006E00047462246FFF78CFD53465A46C01A9141B1
:1006F00010D311461846224600F092FA2D1A67EBE5
:1007000001084F4622460120002100F089FA17EB2C
:1007100000094E41201EA4F10104DFDC48463146A9
:100720002A464346BDE8F09F3A2800D2303820F0F0
:100730002002412A01D3A2F13700884201D34FF0B1
:10074000FF30704702681144137801601846704703
:10075000D1600449516104491162002111611146BF
:1007600000F08EBA450700086D0C0008426842B1DF
:10077000016811F8013B23B1521EC0E9001218466E
:1007800070470121C160881E704742685AB1C36832
:10079000016843B983688B4205D0491E521CC0E9E9
:1007A0000012002070474FF0FF3070472DE9F047EE
:1007B00091460F4680460446002614F8015B2DB191
:1007C00000F050FA0068405DC007F6D12B2D02D032
:1007D0002D2D18D0641E4A463946204600F0E6FB0F
:1007E00027B13968A14201D1C7F8008071054FF0E7
:1007F00002040BD54042002803DD03F08DFC0460A9
:10080000A007BDE8F08746F48066E4E70028F8DA40
:1008100003F082FC04606FF00040F2E70029A8BFFB
:100820007047401C490008BF20F00100704710B419
:10083000B0FA80FC00FA0CF050EA010404BF10BCCE
:10084000704749B1CCF1200421FA04F411FA0CF1FB
:1008500018BF012121430843A3EB0C01CB1D4FEA34
:1008600000614FEA102042BF002010BC704700EB2F
:10087000C35010440029A4BF10BC7047401C49005D
:1008800008BF20F0010010BC70472DE9FE4F8046E4
:1008900081EA0300C00F0C46009021F0004123F0D4
:1008A0000045B8EB0200A94105D2404621469046DA
:1008B0001C460B46024623F00040104347D0270D4C
:1008C000C7F30A00C3F30A510290401A019040286E
:1008D0006BDAC3F3130040F4801B0098924620B1FA
:1008E0000023D2EB030A63EB0B0B01985946C0F1CE
:1008F0004002504600F094F906460D4650465946CF
:10090000019A00F09CF910EB08006141002487EA8D
:10091000115284EAE7731A4340D0009A62B3019AF5
:10092000012A4FEA075215DC001B61EB02014FF070
:10093000004202EA0752CDE90042001C41F5801155
:1009400032462B4600F090FB03B0BDE8F08F4046E6
:100950002146F9E7001B61EB0201001C41F5801301
:1009600000185B412018A2F5001747EB030140EA8D
:10097000D570B6196D4111E06D084FEA360645EAAB
:10098000C0754FEA0752001B61EB0201001C41F5E4
:10099000801149084FEA30000019514132462B4678
:1009A00003B0BDE8F04F00F050BB009801224000BA
:1009B0000023D0EB020263EBE073009821464FEA7C
:1009C000E074B8EB000061EB0401E9E783F0004359
:1009D0005BE781F0004158E72DE9FE4F81EA03040F
:1009E00004F0004421F0004100944FF0000B23F08C
:1009F000004350EA01045ED052EA03045BD0C3F323
:100A00000A54C1F30A552C44A4F2F3340194A0FB18
:100A10000254C1F3130141F48011C3F3130343F4EF
:100A2000801301FB024400FB034E840A970A44EA48
:100A3000815447EA8357A4FB076802958D0A05FB9A
:100A400007854FEA932C04FB0C542705029D4FEABF
:100A5000065847EA1637B5EB08056EEB070C870E0C
:100A6000920E47EA811742EA8312A7FB0201B6EB16
:100A70000B0164EB00042B0D43EA0C335E1844EBCE
:100A80001C50DA465146E7FB0201C5F313044FEA56
:100A90000B3343EA14534FEA0432019C43EA060342
:100AA000A4F10C040294009CCDE900B400F0DCFA3F
:100AB00003B0BDE8F08F00200146F9E72DE9F04DC5
:100AC00081EA030404F0004B21F0004514464FF086
:100AD000000A23F0004150EA050220D054EA010246
:100AE0001DD0C5F30A570246C5F31303C1F3130023
:100AF000C1F30A5640F4801543F48013A7EB0608AF
:100B0000101BD64608F2FD3873EB050002D308F13E
:100B1000010801E092185B41B8F1000F03DA0020F0
:100B20000146BDE8F08D00204FF480110646844652
:100B30000EE0171B73EB050705D3121B63EB0503D0
:100B400006434CEA010C49084FEA300092185B4119
:100B500050EA0107EDD152EA030012D082EA040004
:100B600083EA0501084305D0101BAB4106D20122E0
:100B7000002306E000224FF0004302E06FF0010284
:100B800053101AEB06004CEB085110EB0A0041EB36
:100B90000B01BDE8F04D00F058BAC1F30A52C1F3A1
:100BA000130140F2FF3341F480119A4202DA00202F
:100BB0000146704740F233439A42A2F2334202DCCC
:100BC0005242FFF71DBB00F02BB8000030B5041EE9
:100BD00071F1000404DB4FF00044404264EB01017A
:100BE000141E73F1000405DB1C464FF00043524213
:100BF00063EB0403994208BF904230BD064C074D99
:100C000006E0E06840F0010394E8070098471034DC
:100C1000AC42F6D3FFF790FA0C7D00082C7D00085B
:100C2000202A04DB203A00FA02F1002070479140AC
:100C3000C2F1200320FA03F3194390407047202AA1
:100C400006DBCB17203A41FA02F043EAE07306E0F4
:100C500041FA02F3D040C2F1200291400843194604
:100C60007047000000487047747A000810B50446C9
:100C7000FFF7F8FF0068005D00F0010010BD000004
:100C80002DE9F34F8BB04FF0000801F10C000C463A
:100C90004FF0010B46460DF1080A019062690121EF
:100CA00001989047051E2DD0252D2CD0216A88470C
:100CB000C0B16269012101989047216A88470028E4
:100CC000F7D1411E62690198904700E0761CA16946
:100CD0000B988847216A88470028F7D1E1690B986B
:100CE0008847DBE7A1690B9888470746A84201D1EE
:100CF000761CD3E7E1690B9888477F1C02D1B8F1D5
:100D0000000F6FD046E1002762693D4639460198E1
:100D100090472A2804D16269012101989047012552
:100D2000DFF884926269012101989047A0F13001B7
:100D30000A290AD24F45E5DC07EB870100EB4107A2
:100D4000303FDFD445F01005ECE7E90601D46FF041
:100D500000476C280AD04C2814D0682815D06A287F
:100D60000DD074281CD07A281AD01DE062690121A8
:100D7000019890476C2802D045F0040514E045F036
:100D800002050DE045F020050AE0626901210198A5
:100D90009047682802D045F0080505E045F4006555
:100DA0006269012101989047C4E9015765283DD047
:100DB00019DC58287AD00CDC452837D004DC2528EB
:100DC00026D0412831D131E046282FD047282CD1D8
:100DD0002CE05B2877D0612828D063287CD0642859
:100DE00023D15AE0D0E06F2848D008DC66281DD017
:100DF00067281BD0692821D06E2816D127E07028DB
:100E000045D0732868D0752847D078280DD14DE09B
:100E1000A1690B988847054625283FF469AFE16929
:100E20000B9888476D1C3FF46AAFB3E023466A46CF
:100E30006FF001000B99AFF300809EE045F0400099
:100E40006060A80723464FF0000236D43EE0E80772
:100E50007FF447AF2068011D21600068290501D596
:100E600006701BE7290701D5068017E7A90703D5F8
:100E7000F117C0E9006111E706600FE745F0400097
:100E80006060A80723464FF0080216D41EE040F623
:100E90000E0125EA0100606016E045F04000606048
:100EA000A80723464FF00A0207D40FE045F04000A0
:100EB0006060A80708D5234610226FF001000B9947
:100EC000AFF3008059E007E0234610226FF00100E5
:100ED0000B99FFF741FA50E04FF000094F464B469F
:100EE000632802D05B2806D040E0E80601D4012048
:100EF000A06001273AE062690121019890475E28CD
:100F000005D14FF00109626949460198904721696E
:100F100039B900210A46534643F82120491C0829C3
:100F2000FADBB0B3216969B9C11700EBD162531183
:100F30000AEB830122F01F02821A01200B68904005
:100F400003430B6062690121019890475D28E8D155
:100F5000B9F1000F09D00020514651F82020D243AA
:100F600041F82020401C0828F7DB02AB22460097FE
:100F70006FF001000B99FFF795FA00280CDA401C7E
:100F800008D1BBF1000F05D04FF0FF300DB0BDE828
:100F9000F08FFFE74046F9E7E90701D108F10108C2
:100FA00006444FF0000B79E6CCCCCC0C2DE9F05F79
:100FB00082460078002715468B460AF10104B9469F
:100FC000302801D09DB113E014F8010B01277828D7
:100FD00003D0582801D045B10AE00DB1102D07D13A
:100FE0000027102514F8010B02E0082500E00A256F
:100FF0000026B0460EE005FB080005FB06F10127C0
:1010000001EB10461FFA80F8B6F5803F00D3B946D1
:1010100014F8010B2946FFF787FB0028EBDABBF138
:10102000000F05D00FB1641E00E05446CBF800401D
:10103000B9F1000F06D003F06FF802210160C81E5D
:10104000BDE8F09F48EA0640FAE710B5141E73F1B8
:10105000000408DA401C41F1000192185B411A4378
:1010600001D120F0010010BD2DE9F04D92469B46C4
:1010700011B1B1FA81F202E0B0FA80F2203290466A
:10108000FFF7CEFD04460F4640EA0A0041EA0B0195
:1010900053465A46084313D0114653EA010019D06B
:1010A000C8F140025046FFF7ABF805460E465046E1
:1010B00059464246FFF7B4FD084305D0012004E03D
:1010C00020463946BDE8F08D0020054346EAE0762B
:1010D0002C4337430A986305E40AA0EB080000227A
:1010E000FD0A44EA47540A3002D500200146E9E7E8
:1010F000010510196941DDE9084500196941BDE89C
:10110000F04DA2E7FEE7704770470000014800F08D
:10111000E3B80000C4020020014800F0DDB8000080
:101120003C020020014800F0D7B8000080020020F7
:1011300030B590F840500124AC40C56B6C60046839
:1011400063604368102B036803D099600068C26035
:1011500030BD9A600068C16030BD704772B6FEE76E
:1011600010B590F821100022022905D004218163D6
:1011700080F82020012010BD01680B6823F00E03C9
:101180000B6001680B6823F001030B6090F840309E
:10119000C46B012101FA03F3636080F8211080F829
:1011A0002020104610BD00002DE9F05F90F82110BE
:1011B0000024022903D004218163012485E0016811
:1011C0000A6822F00E020A6001680A6822F0010231
:1011D0000A603F4E3E4FB215DFF8F4C0DFF8F090E2
:1011E000DFF8ECA0DFF8E8B0DFF8E4E00168783F72
:1011F00013011502ACF1640CA9F15009AAF13C0AE3
:10120000ABF1280BAEF1140E4FF48018B14227D980
:10121000B9420ED0614512D049451DD0514518D074
:10122000594518D0714501D1424615E0294EB142C9
:1012300001D1012210E0274E1436B14201D1102213
:101240000AE0244E2836B14206D0224A3C3291426E
:1012500001D11A4600E02A461E49091F0A602BE008
:10126000B94213D0614517D0494522D051451DD010
:1012700059451DD0714501D142461AE0B14202D113
:101280004FF0807215E0134EB14201D1012210E0FF
:10129000104E1436B14201D110220AE00D4E28360C
:1012A000B14206D00B4A3C32914201D11A4600E0CD
:1012B0002A46074980394A60012180F8211000211F
:1012C00080F82010416B01B188472046BDE8F09FAF
:1012D00080000240080402402DE9F05FC16B0A68FB
:1012E00001680B68046C4FF0040808FA04F8844D98
:1012F000844E854FDFF814C2DFF81492DFF814A291
:10130000DFF814B2DFF814E218EA020F65D05FEAE2
:10131000437862D50A68920603D40A6822F0040270
:101320000A60DFF8F0814FF48062016808F1140868
:1013300013011402414524D9A9420DD0B1420FD066
:10134000B9421AD0614515D0494515D0514501D152
:10135000120312E0594501D104220EE0714501D17A
:1013600040220AE06D4D1435A94206D06B4A28325E
:10137000914201D11A4600E022466749091F0A60DE
:1013800029E0A94213D0B14215D0B94220D061451D
:101390001BD049451BD0514502D14FF4800217E0C4
:1013A000414502D14FF0806212E0594501D104223B
:1013B0000EE0714501D140220AE0584D1435A94292
:1013C00006D0564A2832914201D11A4600E0224600
:1013D0004B4908394A60C16A71E04FF0020808FAC7
:1013E00004F818EA020F70D05FEA83786DD50A68B6
:1013F000920606D40A6822F00A020A60012180F8E7
:101400002110DFF810814FF40072016808F1140810
:1014100013011402414524D9A9420DD0B1420FD085
:10142000B9421AD0614515D0494515D0514501D171
:10143000120312E0594501D102220EE0714501D19B
:1014400020220AE0354D1435A94206D0334A28320D
:10145000914201D11A4600E022462F49091F0A6035
:1014600029E0A94213D0B14215D0B94220D061453C
:101470001BD049451BD0514502D14FF4001217E053
:10148000414502D14FF0007212E0594501D10222CC
:101490000EE0714501D120220AE0204D1435A94209
:1014A00006D01E4A2832914201D11A4600E0224657
:1014B000134908394A60002180F82010816A002908
:1014C0001CD0BDE8F05F0847FFE70825A54015429E
:1014D00014D01A0712D50A6822F00E020A6090F89A
:1014E0004020C36B012101FA02F25A60816380F847
:1014F0002110002180F82010016BE0E7BDE8F09F8B
:10150000080002401C00024030000240440002403B
:10151000580002406C000240080402401C040240D3
:1015200030B560B11A4B026814219A4209D2194BA6
:101530001344B3FBF1F18900016417490AE001206B
:1015400030BD134B5B421344B3FBF1F189000164DE
:101550000F490839C163022180F82110136843F64E
:10156000F0718B43F0E901142143D0E902452C438B
:101570002143046921434469214384692143194378
:10158000116000214163012242770177084630BD96
:1015900008040240F8FFFDBF0000024070B5044699
:1015A00090F82000002501280CD0012084F82000AC
:1015B00094F821600020012E06D084F82000022536
:1015C000284670BD022070BD022684F82160A06309
:1015D0002068066826F0010606602046FFF7A8FD91
:1015E000E06A00282068016802D041F00E0106E0A0
:1015F00021F0040101602068016841F00A010160E6
:101600002068016841F001010160D9E72DE9F84F38
:10161000DFF8C891002409F1040A0AF1040B2346FB
:101620000F270BF1040ED1E00125A54006EA0502C3
:10163000AA4276D1DFF8A8C14E68A6EB0C08664531
:101640002BD00DDC032E34D005DC36B3012E19D09F
:10165000022E2FD11BE0112E16D0122E2AD119E006
:10166000B8F5881F19D006DCB8F5803F15D0B8F55D
:10167000801F1FD111E0B8F5001F0ED0B8F5041F70
:1016800018D10AE0CB6815E0CB681B1D12E0CB68CF
:1016900008330FE0CB680C330CE08B682BB1012BC7
:1016A0004FF0080303D0456104E0042302E0056124
:1016B00000E00023FF2A01D8064601E000F10406FD
:1016C0004FEA840501D9A5F12005D6F8008007FA74
:1016D00005FC28EA0C0803FA05F548EA0508C6F8EF
:1016E00000804D68ED0070D53E4DAE6946F00106B4
:1016F000AE61AD6924F0030605F0010500953A4D91
:1017000006EB050CDCF80850A607360F07FA06F8BA
:1017100025EA0805DFF8D480404503D14FF00008E2
:1017200025E052E0DFF8C880404502D14FF00108C3
:101730001DE0DFF8C080404502D14FF0020816E0FE
:10174000DFF8B480404502D14FF003080FE0DFF826
:10175000AC80404502D14FF0040808E0DFF8A080DB
:10176000404502D14FF0050801E04FF0060808FAA5
:1017700006F848EA0508CCF808804D68D9F80060FA
:10178000ED034D4601D5164300E096432E604D68AB
:10179000DAF80060AD03554601D5164300E09643E4
:1017A0002E604D68DBF80060ED025D4601D5164302
:1017B00000E096432E604D68DEF80060AD0275468D
:1017C00001D5164300E096432E60641C0A68164655
:1017D000E2407FF429AFBDE8F88F0000000401402B
:1017E00000001110001002400000014000080140FC
:1017F000000C01400010014000140140001801409D
:10180000001C01400AB1016170470904FBE70000B8
:101810000148806870470000240000200248816869
:10182000027811448160704724000020074810B5F9
:10183000016841F010010160032000F08BF80020E6
:1018400000F006F800F03EF8002010BD0020024035
:1018500000B5014687B00022192000F05BF819207E
:1018600000F04AF81348816941F4006181618069A0
:1018700005A900F400600690684600F013F900F036
:1018800041F90D490D4AB0FBF1F10D48491E0260C6
:10189000416040F2E7320021C0E90321816000F09D
:1018A00047FB10B1012007B000BD054800F08CFBDC
:1018B000F9E700000010024040420F00002C0140F8
:1018C000080300200B4882B0816941F00101816169
:1018D000816901F001010091C16941F08051C1614C
:1018E000C069002200F0805000900F21901E02B0CD
:1018F00000F010B800100240002809DB00F01F02C1
:10190000012191404009800000F1E020C0F8001161
:1019100070470000F0B40E4B1B680C46C3F3022363
:10192000C3F10705042D00D90425191D072901D28B
:10193000002300E0DB1E012606FA05F1491E2140C6
:1019400099409E40761E16403143F0BC02F0D4BB55
:101950000CED00E0064900F0070208684FF6FF03AF
:10196000184040EA0220034A104308607047000014
:101970000CED00E00000FA052DE9F0470F460500E8
:1019800061D0434E306800F00700B84209D2306899
:1019900020F0070038433060306800F00700B8429C
:1019A00051D128683B4C810712D5400703D56068A8
:1019B00040F4E06060602878000703D5606840F478
:1019C000605060606068A96820F0F00008436060C3
:1019D0002878C00728D06868012810D0216802281C
:1019E00010D0890700292EDA616821F00301014334
:1019F0006160FFF70DFF804641F288390DE02168F4
:101A00008903EFE78901EDE7FFF702FFA0EB08018B
:101A1000494502D90320BDE8F0876068696800F095
:101A20000C00B0EB810FEFD1306800F00700B84236
:101A30000BD9306820F0070038433060306800F080
:101A40000700B84201D00120E5E72878400705D516
:101A50006068E96820F4E060084360602878000767
:101A600006D56068296920F4605040EAC1006060D2
:101A700000F058F86168084AC1F30311515CC8408E
:101A80000649086006480068FFF7E2FE0020C2E74A
:101A9000002002400010024054790008300000206D
:101AA000280000200F2202600C4A536803F0030351
:101AB0004360536803F0F0038360536803F4E0630A
:101AC000C36052684FF4E06303EAD2020261044843
:101AD000006800F007000860704700000010024036
:101AE000002002400448054900684968044AC1F3DF
:101AF0000221515CC84070473000002000100240B5
:101B0000647900080448054900684968044AC1F33B
:101B1000C221515CC84070473000002000100240D4
:101B20006479000812A185B00FC98DE80F0014A0D8
:101B3000144A006804905168134801F00C03042B08
:101B400010D0082B0ED1C1F38343C9031DF8030045
:101B50000AD5516804AAC1F34041515C0A4A504376
:101B6000B0FBF1F005B0704708494843FAE70000C0
:101B700002030405060708090A0B0C0D0E0F1010CE
:101B8000010200000010024000127A0000093D002E
:101B90002DE9F84F040070D02078C04DC00749D01F
:101BA0006868C0F38100012807D06868C0F381002D
:101BB000022809D16868C00306D52868800339D592
:101BC00060680028E7D035E06068B0F5803F0BD052
:101BD00010B1B0F5A02F11D0286820F48030286013
:101BE000286820F4802002E0286840F480302860D3
:101BF000606890B1FFF70CFE06460AE0286840F4E2
:101C000080202860F0E700BFFFF702FE801B6428F9
:101C100073D828688003F7D50CE0FFF7F9FD064676
:101C200005E000BFFFF7F4FD801B6428F0D82868AA
:101C30008003F7D420789A4E80074FF001094FF0C7
:101C4000000839D5686810F00C0F07D06868C0F339
:101C50008100022809D16868C00306D4286880077B
:101C600014D52069012808D110E02069B0B1C6F868
:101C70000090FFF7CDFD074605E00AE1FFF7C8FD3C
:101C8000C01B0228C4D828688007F7D52868616976
:101C900020F0F80040EAC10028600DE0C6F800809E
:101CA000FFF7B6FD074604E0FFF7B2FDC01B0228B0
:101CB00023D828688007F7D4207800072CD57948E6
:101CC000A169D9B1C0F80090FFF7A2FD074604E072
:101CD000FFF79EFDC01B02280FD8686A8007F7D562
:101CE00071484FF4FA510068B0FBF1F0009000BF6A
:101CF0000098411E0091FAD20EE080E0C0F800800A
:101D0000FFF786FD074604E0FFF782FDC01B0228AF
:101D100075D8686A8007F7D42078400760D5E869ED
:101D20000027C00008D4E86940F08050E861E86905
:101D3000012700F0805000905C480168C90513D469
:101D40000168834641F480710160FFF761FD8246BE
:101D500006E000BFFFF75CFDA0EB0A0064284ED848
:101D6000DBF80000C005F5D5E06801280AD008B10D
:101D7000052813D0286A20F001002862286A20F084
:101D8000040002E0286A40F001002862E06841F2A5
:101D9000883B98B1FFF73CFD82460BE0286A40F093
:101DA00004002862EEE700BFFFF732FDA0EB0A0156
:101DB00059455AD8286A8007F6D50CE0FFF728FD68
:101DC000824605E0FFF724FDA0EB0A0159454CD8F7
:101DD000286A8007F6D41FB1E86920F08050E861D6
:101DE000E06988B36968C1F38101022944D00228FF
:101DF000C6F8608004D0FFF70BFD044638E034E0FD
:101E0000FFF706FD074604E0FFF702FDC01B0228AE
:101E10002BD828688001F7D4206AB0F5803F05D11F
:101E20006868A16820F4003008436860D4E90801BC
:101E30000843696821F4741108436860C6F860902B
:101E4000FFF7E6FC044606E025E000BFFFF7E0FCF4
:101E5000001B022809D828688001F7D51BE000BFC5
:101E6000FFF7D6FC001B022802D90320BDE8F88F3B
:101E700028688001F4D40EE00128F7D06868226A4F
:101E800000F48031914204D1616A00F470108842FC
:101E900001D00120EAE70020E8E70000001002403E
:101EA00000004242800442423000002000700040A6
:101EB0007047704770B590F83C20012A2CD001245F
:101EC00080F83C40022280F83D2003685A689D68F3
:101ED00022F070060A6832435A60104B02689A4238
:101EE0000ED00F4B9A420BD0B2F1804F08D00D4B61
:101EF0009A4205D00C4B9A4202D00C4B9A4204D124
:101F0000496825F080031943916080F83D40002125
:101F100080F83C10084670BD022070BD002C0140C6
:101F2000003401400004004000080040000C004064
:101F300010B5040003D094F83D0010B107E0012073
:101F400010BD002084F83C00204600F01FF802205D
:101F500084F83D00211D206800F0F6FD012084F882
:101F6000460084F83E0084F83F0084F8400084F87E
:101F7000410084F8420084F8430084F8440084F867
:101F8000450084F83D00002010BD000008B5006841
:101F90000B49884212D10B48C16941F01001C1615F
:101FA000C069002200F01000009005213620FFF7E4
:101FB000B1FCBDE808403620FFF79EBC08BD00001C
:101FC000001000400010024090F83D10012901D09F
:101FD00001207047022180F83D100168CA6842F074
:101FE0000102CA6000680E4988420ED00D4988423D
:101FF0000BD0B0F1804F08D00B49884205D00B4977
:10200000884202D00A49884204D1816801F0070160
:10201000062903D0016841F00101016000207047EA
:10202000002C014000340140000400400008004042
:10203000000C0040704770B50446006801694FF01D
:102040000005C943890715D4C168C943890711D45C
:10205000E91E016101202077206880698007204601
:1020600002D0FFF7E7FF04E000F098F8204600F008
:1020700096F8257720680169C943490717D4C168D4
:10208000C943490713D46FF004010161022020778E
:102090002068806910F4407F204602D0FFF7CAFF15
:1020A00004E000F07BF8204600F079F825772068FE
:1020B0000169C943090716D4C168C943090712D485
:1020C0006FF008010161042020772068C069800753
:1020D000204602D0FFF7AEFF04E000F05FF8204694
:1020E00000F05DF8257720680169C943C90617D457
:1020F000C168C943C90613D46FF0100101610820FB
:1021000020772068C06910F4407F204602D0FFF796
:1021100091FF04E000F042F8204600F040F82577F7
:1021200020680169C943C90708D1C168C943C90703
:1021300004D1891E0161204600F032F8206801694F
:10214000C943090609D4C168C943090605D46FF01B
:10215000800101612046FFF7ABFE20680169C94399
:10216000490609D4C168C943490605D46FF0400146
:102170000161204600F01EF820680169C943890604
:102180000BD4C168C943890607D46FF020010161EF
:102190002046BDE87040FFF78CBE70BD70477047A9
:1021A00000680349884201D1FFF738BB704700003F
:1021B000002C01407047704710B504460068416923
:1021C00094F83D20C1F3C011212A0BD151B14169CE
:1021D00021F080014161606B08B1FEF7C1FF20462C
:1021E00000F083FD2068416994F83E20C1F380111E
:1021F000222A0BD151B1416921F040014161A06B0C
:1022000008B1FEF7ADFF204600F057FD002010BDDD
:102210000020401C0528FCDB70470000F8B5026870
:1022200004461068D168536910F00F0F4FF0000595
:1022300054D003F0010601F4907737435FD0C20712
:1022400005D0CA0503D5226C42F001022264420780
:1022500005D5DA0703D0226C42F00202226482071D
:1022600005D5DA0703D0226C42F00402226402078B
:1022700007D501F02002324303D0226C42F008025D
:102280002264226C002A35D0800604D5880602D547
:10229000204600F033FD20684069216CC0F38010B7
:1022A00001F008010143204625D000F006FD20681A
:1022B000416949061BD5416921F040014161A06B8C
:1022C000A8B158494163A06BFEF76EFF002811D0FA
:1022D000A06B416B01B0BDE8F040084783060ED506
:1022E0008B060CD52046BDE8F84000F007BD20461F
:1022F000FFF78EFFF8BDFFF78BFF2564F8BD266B57
:102300002023012E52D1C60650D5CE064ED51068D8
:1023100050680090506940062AD5A16B0868406853
:102320000004000CEAD0A68D8642E7D9E0858869D2
:10233000202818D0D06820F48070D06020684169CF
:1023400021F0010141612068416921F040014161B2
:1023500084F83E3025632068C16821F01001C16017
:10236000A06BFEF7FDFEA08DE18D401A81B219E051
:10237000A08DE18D401A81B2E08D0028BED00029E9
:10238000BCD0D06820F49070D0602068426922F000
:102390000102426184F83E3025632068C26822F061
:1023A0001002C2602046FFF706FFF8BD05062BD5D8
:1023B0000D0629D594F83D002128F6D1A068B0F586
:1023C000805F01D12069B0B1206A411C216221687F
:1023D00000784860E08C401E0004000CE084E4D1EA
:1023E0002068C16821F08001C1602068C16841F0A7
:1023F0004001C160F8BD206A0088C0F30800506049
:10240000206A801C2062E5E74006F3D54806F1D536
:10241000D168204621F04001D16084F83D3000F0C1
:10242000CCF9F8BDED2B000870B5040004D094F889
:102430003D00002510B106E0012070BD84F83C503D
:10244000204600F023F8242084F83D002068C1686D
:1024500021F40051C160204600F0ACFC2068016905
:1024600021F4904101612068416921F02A01416114
:102470002068C16841F40051C1602564202084F8BF
:102480003D0084F83E00002070BD00002DE9F047BB
:1024900086B00024009401940294039405460368D6
:1024A0007648754F0615022103224FF4006ABB429D
:1024B00021D1C36943F40023C361C36903F400233A
:1024C0000493836943F0100383618069CDE900615F
:1024D00000F01000CDE90320694D69462846FFF75A
:1024E00095F8CDE900A4694628460294FFF78EF8D6
:1024F00006B0BDE8F087DFF88CC1DFF88C8180275B
:102500004FF02009634538D1836943F480438361E8
:10251000836903F480430493836943F00403836174
:102520008069039200F004000490B800CDE9000136
:1025300069464046FFF76AF8CDE9006469464046BF
:102540000294FFF763F8524E5048C6E90004C6E90A
:1025500002473461B8017461C6E906903046FEF75F
:10256000DFFF08B1FEF7FAFDAE630022052125204A
:102570007562FFF7CFF925203DE0DFF818C163450C
:102580003CD1C36943F40033C361C36903F400332E
:102590000493836943F0040383618069039200F02C
:1025A000040004900420CDE9000169464046FFF78D
:1025B0002DF80820CDE90004694640460294FFF753
:1025C00025F8334E314844361430C6E90004C6E9D4
:1025D00002473461C6E905493046F461FEF7A0FFC1
:1025E00008B1FEF7BBFDAE6300220521262075620F
:1025F000FFF790F92620FFF77FF979E7DFF898C019
:102600006345FAD1C36943F48023C361C36903F40A
:1026100080230493836943F0080383618069CDE9D3
:10262000006100F00800CDE903201C4E69463046E9
:10263000FEF7ECFFCDE900A4694630460294FEF7B0
:10264000E5FF134E114888362838C6E90004C6E96C
:1026500002473461C6E905493046F461FEF760FF80
:1026600008B1FEF77BFDAE630022052127207562CD
:10267000FFF750F92720BEE7004C00400010024051
:10268000001001400038014000080140580002409D
:102690003C0200200044004000480040000C014083
:1026A00090F83E30202B0ED159B152B190F83C3009
:1026B000012B08D0012380F83C300023036300F095
:1026C000D5BB012070470220704790F83E30202B88
:1026D0000ED159B152B190F83C30012B08D00123F2
:1026E00080F83C300023036300F0F8BB0120704702
:1026F000022070470249884201D100F099BE70471C
:10270000B4010020704700002DE9F843044690F81A
:102710003D001F4616460D4620284CD1C5B1BEB11E
:1027200094F83C00012846D0012084F83C004FF08A
:102730000008C4F84080212084F83D00FFF768F8C5
:10274000A6848146E684A068B0F5805F03D004E0EB
:102750000120BDE8F883206928B12E465FF000050E
:1027600084F83C800EE00026FAE78021204600F045
:10277000D0FBA0B9AEB116F8010B21684860E08C1F
:10278000401EE084E08C4B464FF00002009700288A
:10279000EBD14FF04001204600F0BBFB30B10320ED
:1027A000D7E735F8020BC0F30800E6E7202084F8ED
:1027B0003D000020CDE70220CBE77047FEE7000098
:1027C000114808B5416941F00101416140690022A9
:1027D00000F00100009005210D20FFF79BF80D206F
:1027E000FFF78AF8002205210F20FFF793F80F204A
:1027F000FFF782F8002205211020FFF78BF8BDE8D3
:1028000008401020FFF778B80010024010B51E48AD
:1028100002F024FA1D4C20611B48103002F01EFA11
:10282000194A012160612032084602F091FA164AE5
:102830000121A0613032084602F08AFA124BE061B1
:10284000203B00220121124802F062FB0E4BA060E7
:10285000103B002201210F4802F05AFB0A4AE060B7
:10286000683A00210C4802F001FB074A2060443A14
:1028700000210A4802F0FAFA60600348403002F092
:102880008FF9206210BD00000479000800000020CC
:102890000711000809110008752A00086958000886
:1028A0002DE9F04186B0002424480094019402945C
:1028B0000394816941F004018161816901F004019F
:1028C0000491816941F008018161816901F0080189
:1028D0000491816941F010018161816901F0100169
:1028E0000491816941F0200181618069144F00F0F9
:1028F00020000490012230213846FEF783FFDFF8E4
:10290000448000222A214046FEF77CFF302001252A
:102910000226CDE90005CDE9024669463846FEF7B4
:1029200075FE2A20CDE90005CDE9024669464046FC
:10293000FEF76CFE06B0BDE8F0810000001002401A
:1029400000080140001401401CB500240F48009409
:102950000D49019401602321C0E901144FF47A71FB
:10296000C16080218161FFF7E3FA08B1FEF7F6FB51
:102970000094694605480194FFF79CFA002801D0AD
:10298000FEF7ECFB1CBD000000100040E40000203E
:102990000C4810B50A4901604FF4E1314160002153
:1029A00081600C22C160C0E904128161C161FFF73E
:1029B0003BFD002803D0BDE81040FEF7CFBB10BDA3
:1029C000004C00402C0100200C4810B50A49016061
:1029D0004FF4E1314160002181600C22C160C0E907
:1029E00004128161C161FFF71FFD002803D0BDE81B
:1029F0001040FEF7B3BB10BD00380140700100204D
:102A00000C4810B50A4901604FF4E13141600021E2
:102A100081600C22C160C0E904128161C161FFF7CD
:102A200003FD002803D0BDE81040FEF797BB10BDA2
:102A300000440040B40100200C4810B50A49016070
:102A40004FF4E1314160002181600C22C160C0E996
:102A500004128161C161FFF7E7FC002803D0BDE8E3
:102A60001040FEF77BBB10BD00480040F80100207D
:102A7000FEE7FEE702F012F8094D4FF4FA74012266
:102A800002212846FEF7BEFE204602F06FF8002223
:102A900002212846FEF7B6FE204602F067F8EEE770
:102AA0000014014010B5502080F31188BFF34F8F00
:102AB000BFF36F8F04F0E2FC18B104494FF080506F
:102AC0000860002080F3118810BD000004ED00E0D4
:102AD00030B58FB028216846FDF7BBFB14210AA84A
:102AE000FDF7B7FB01210804CDE900100024029492
:102AF00002250491CDE907504FF4E0100990684693
:102B0000FFF746F808B172B6FEE70F20CDE90A05D7
:102B10004FF48060CDE90C4002210AA80E94FEF724
:102B20002BFF002801D072B6FEE70FB030BD704712
:102B30000148FFF780BA0000080300200148FFF7B2
:102B40007ABA0000E4000020F0B502681C4B1D4D6D
:102B50001D4E1E4F1E4C4FF0804C984209D0A04293
:102B600007D0604505D0A84203D0B04201D0B8429A
:102B700004D122F0700E4A6842EA0E02984209D04F
:102B8000A04207D0604505D0A84203D0B04201D092
:102B9000B84203D122F44075CA682A434D6922F035
:102BA00080022A4302608A68C2620A68826298428E
:102BB00001D0A04201D10969016301214161F0BD49
:102BC000002C01400004004000080040000C0040C0
:102BD0000034014010B502F023FE002805D0D0E9F2
:102BE0000021BDE810400846104710BD10B5406AEE
:102BF0000021C185C184FFF70BFB10BD70B5446A8D
:102C00002068406994F83D10C0F3C01000252129C8
:102C100004D118B1E584204600F067F820684069C7
:102C200094F83E10C0F38010222904D118B1E58534
:102C3000204600F042F8206C40F01000206420464E
:102C4000FFF7E6FA70BD10B50146406A09680968E9
:102C500089061BD40021C1850168CA6822F48072EC
:102C6000CA6001684A6922F001024A6101684A6942
:102C700022F040024A61202180F83E10016B0129B8
:102C800004D10168CA6822F01002CA60016B0129F0
:102C900002D0FFF72FFD10BD818DFFF78CFA10BD1C
:102CA00010B5406A016B012902D0FFF72BFD10BD62
:102CB000818D4908FFF77FFA10BD0168CA6822F4C8
:102CC0009072CA6001684A6922F001024A61016B90
:102CD000012904D10168CA6822F01002CA602021CB
:102CE00080F83E100021016370470168CA6822F035
:102CF000C002CA60202180F83D10704708B590F8E6
:102D00003E10222901D0022008BD82684FF4805372
:102D10009A4201D1016921B1816A9A421BD04AB11C
:102D20000AE00268816A5268C2F308020A80816A76
:102D3000891C08E0026972B10268526802F07F02E1
:102D40000A70816A491C8162C18D491E0904090CFF
:102D5000C18503D019E002685268F1E70168CA68CA
:102D600022F02002CA600168CA6822F48072CA6038
:102D700001684A6922F001024A61202180F83E1070
:102D8000016B012903D0FFF7B5FC002008BD00212D
:102D900001630168CA6822F01002CA6001680A680B
:102DA000D20602D50A6849680091818DFFF703FABF
:102DB000EBE7000070B5044600680169E26821F4A1
:102DC0004051114301612169A068084361690843CA
:102DD0002168CA6841F20C639A430243CA602068C2
:102DE0004169A26921F44071114341611E49206883
:102DF000884202D1FEF786FE01E0FEF773FE00EB8B
:102E0000C00101EB0012606864218000B2FBF0F3A6
:102E1000B3FBF1F36FF018067343B2FBF0F5B2FBAE
:102E2000F0F605EB8305322303EB0515B5FBF1F551
:102E3000B6FBF1F605F0F00505EB0615B2FBF0F672
:102E4000B2FBF0F0B0FBF1F06FF01802504306EB6C
:102E5000800003EB0010B0FBF1F0216800F00F00E0
:102E60002844886070BD00000038014038B5816298
:102E700082850025134604460564222084F83E001E
:102E8000A26B13489062A26B1248D062A26B1248E8
:102E90001063A06B0A4645632168A06B091DFEF70D
:102EA0007DFB206801684168009184F83C50C1684E
:102EB00041F48071C1602068416941F001014161C4
:102EC0002068416941F040014161002038BD0000A7
:102ED000472C0008A12C0008FD2B00088162828588
:102EE000C28500210164222280F83E2080F83C1037
:102EF0000168CA6842F48072CA6001684A6942F097
:102F000001024A610068C16841F02001C1600020EF
:102F100070472DE9F041984617460E460446069D37
:102F20001DE0681C1BD02DB1FEF772FCA0EB080061
:102F3000A84214D92068C16821F4D071C16020680A
:102F4000416921F001014161202084F83D0084F8AD
:102F50003E00002084F83C000320BDE8F08120689A
:102F6000006836EA000004D00020B842D9D0002022
:102F7000F3E70120F9E7000010B5044800F01CF861
:102F8000BDE810400148FFF749B90000700100207A
:102F90000148FFF743B90000B401002010B5044810
:102FA00000F00AF8BDE810400148FFF737B900000B
:102FB000F8010020FEE70000F8B503461C49002098
:102FC0005322424351F822509D4206D101EB820226
:102FD00092F84951012D00D11446401C0528EFDB21
:102FE000216808680268D243D2061FD4026840688C
:102FF00000900846FFF7E0F82068806B00684068A2
:10300000626822B1C0F5807104F1080090474FF466
:10301000807604F1080031460546FDF71AF932467C
:1030200029462068BDE8F840FFF73ABBF8BD00002C
:103030003437002040F6B83001F098FD4FF47A7133
:1030400037A000F0DDFA522000F02EFB00F0A0FDCA
:10305000002000F0AFFC012000F0ACFC022000F0EA
:10306000A9FC032000F0A6FC042000F0A3FC012032
:1030700000F0BEFE00F05EF800F03AFC00F0A4FFA5
:10308000294C04F5417900BF00F09EF894F81A0726
:10309000022801D0032801D100F042FB00F0DCFC43
:1030A00000F074FA5FF0000794F8190701282DD199
:1030B000002084F819070646C6EB061004EB40080A
:1030C00008F61E0519A12846FDF7CEF850B194F870
:1030D000120798F81D18884204D1B4F810174A4610
:1030E00000F06CFF284612A1FDF7BEF850B194F82D
:1030F000120798F81D18884204D1B4F810174A46F0
:1031000000F056FF761CF6B2052ED5D30A2001F04A
:103110002DFD7F1CFFB2642FC6D300F069FFB3E71B
:1031200041540D0A00000000C43D002055445000E9
:10313000544350007CB5184D4FF0FF31286801F022
:10314000CDFD002400F022FA194814A1064600F033
:10315000BFFF304600F04AFAC8B116A0009017A38E
:10316000022201A94FF47A7000F068FF78B19DF84F
:10317000040002280BD012A2012101A800F0E0F8FF
:10318000104908B19DF8040081F81A070124286845
:1031900001F036FE20467CBD1800002041542B4330
:1031A000574D4F44455F4355523F0D0A0000000004
:1031B000C53F00204552524F520000004F4B0000C7
:1031C0003A000000C43D00202DE9FC472C4E4FF092
:1031D000FF31306801F082FD002500F0D7F92C485E
:1031E00028A1814600F074FF484600F0FFF900284E
:1031F00040D028A04FF47A78009028A3022201A999
:10320000404600F01BFF002834D09DF8040002283F
:1032100030D0234A23A1A2F21B741746601CFDF78D
:103220007FF83A4627A1601CFDF77AF800F0AEF966
:103230002CA1484600F04CFF484600F0D7F9C8B131
:1032400014A0009015A3022201A9404600F0F6FE4A
:1032500080B19DF8040002280CD026A1601CFDF767
:1032600003F838B104F22B73012225A100F09CF879
:1032700000B10125306801F0C3FD2846BDE8FC8798
:103280001800002041542B43494653520D0A0000B8
:10329000C53F00204552524F520000004F4B0000E6
:1032A000DF44002041542B43494653520D0D0A2B55
:1032B00043494653523A415049502C22255B5E22E5
:1032C0005D00000041542B43494653520D0D0A2B1B
:1032D00043494653523A53544149502C22255B5E90
:1032E000225D000041542B4349505354413F0D0A85
:1032F00000000000676174657761793A00000000A2
:103300002200000010B5012204490548FFF7DDF94D
:1033100000F03CF9BDE8104000F042BEC43D002082
:10332000B4010020024604E003708B4200D0401C30
:10333000521C1378002BF7D1002101707047000058
:1033400070B5064C0546601C00F00AF8002804D051
:10335000601CFDF717F92860012070BDC43D0020F6
:103360002DE9F0410C460500174612D08CB10D48EE
:103370001146FCF7B3FF002650B139460020FCF798
:10338000ADFF010001D0641EE4B22CB10028F4D1DD
:103390002E700020BDE8F0812846FCF796FF012042
:1033A000F8E70000C53D00200FB42DE9F0410746C5
:1033B0009DF820000E46002830D009AC800001F0B6
:1033C0009FFB0546002004E002CC45F82010401C7D
:1033D000C0B29DF820108842F6D331463846FCF73B
:1033E0007DFFB8B1002431460020FCF777FF0700CD
:1033F00004D09DF82000401E8DF8200055F82400D0
:103400003946FCF762FF641C9DF82000E4B248B125
:10341000002FE8D1284601F007FB0020BDE8F001AD
:103420005DF814FB284601F0FFFA0120F6E70000E2
:103430002DE9F041514C0025012694F81807E8B316
:10344000FEF7E6F9D4F81417401A322801D984F8A7
:103450001857B4F8100790B3B4F80E2748482178ED
:103460001154B4F80E07B0F5806F02D2401CA4F8D6
:103470000E07B4F8101780B2884203D384F81857A7
:1034800084F8196701223D493E48FFF71EF9B4F858
:103490000203042831D9394BDB1EC15C2B292CD106
:1034A0005A1C815C492928D1511C475C502F24D1DA
:1034B000275C442F21D101F2017701E01FE02DE0CC
:1034C0007D60BD60C554B4F802038554B4F80203AE
:1034D0004554B4F802032554B4F80203001FA4F8BD
:1034E0000203A4F80E5784F80C5784F81867A4F860
:1034F0001057FEF78DF9C4F81407BDE8F0811F4896
:10350000B4F80223401C21781154B4F80203B0F53A
:10351000007FB7D2401CA4F80203B3E7174894F821
:10352000192800F20471481E94F80C37002A2278FA
:103530005A5494F80C1701F10101C9B284F80C1720
:1035400004D094F806272C2A07D00BE0085C3A2810
:1035500098D184F812570C480BE094F80527303ABC
:1035600084F8122703298DD9085C3A288AD10648A5
:10357000801CFDF707F8A4F8100783E7C43D00207E
:10358000C8400020B4010020C944002010B5084CF8
:103590004FF40071601CFCF75CFE0020A4F80203ED
:1035A0002146BDE8104001220248FFF78EB8000016
:1035B000C43D0020B401002070B50C460546B1F5AD
:1035C000807F0BD80A4601460648FCF729FE642393
:1035D000224629460448FFF797F808B1002070BD3D
:1035E000012070BDC53F0020B401002010B5044685
:1035F000FCF756FE81B22046BDE81040FFF7DCBF65
:1036000070B50D460446FCF74BFE81B22046FFF72D
:10361000D3FF002803D0284601F0A8FA012070BD8E
:103620002DE9FC41154E05464FF0FF31306801F0A1
:1036300055FB0024FFF7AAFF16482A4610A10746AB
:1036400000F046FD3846FFF7D1FF88B112A0009088
:1036500013A3022201A94FF47A7000F0EFFC38B1F5
:103660009DF80400022803D00E48012480F81A5760
:10367000306801F0C5FB2046BDE8FC811800002041
:1036800041542B43574D4F44455F4355523D2564AC
:103690000D0A0000C53F00204552524F5200000065
:1036A0004F4B0000C43D00207CB5144D06464FF042
:1036B000FF31286801F012FB0024FFF767FF144870
:1036C00032460FA1064600F003FD3046FFF78EFF9D
:1036D00070B110A0009011A3022201A94FF47A70DA
:1036E00000F0ACFC20B19DF80400022800D00124B9
:1036F000286801F085FB20467CBD000018000020F2
:1037000041542B5246504F5745523D25640D0A00F7
:10371000C53F00204552524F520000004F4B000061
:1037200070B5334D8AB04FF0FF31286801F0D6FAFA
:103730000024FFF72BFF32482EA1064600F0C8FCFC
:103740003046FFF753FF00284BD02EA000902FA348
:10375000022209A94FF47A7000F070FCF0B39DF8D2
:10376000240002283DD02A4C0D21601CFFF7DAFD11
:1037700004F2F570A0F16801CDE90710A0F1120282
:10378000A0F17803CDE90532243A02922438203999
:10379000CDE90310203B2438CDE90003103B0A2279
:1037A0001CA1601CFFF700FE0021084604EB01127B
:1037B00092F84D37303B0A2B01D382F84D0701EBCD
:1037C000C10204EB420292F8AD37303B0A2B01D321
:1037D00082F8AD07491CC9B2062900E001E0E5D333
:1037E0000124286801F00CFB0AB0204670BD0000DF
:1037F0001800002041542B43574C49460D0A000045
:10380000C53F00204552524F520000004F4B000070
:10381000C43D00200A2C00002DE9FE431B4F8846C2
:10382000814615464FF0FF31386801F057FA002401
:10383000FFF7ACFE164E0DB343464A4615A130467F
:10384000009500F045FC3046FFF7D0FE80B119A18D
:103850001BA0CDE900011DA3032202A94EF66020A2
:1038600000F0ECFB20B19DF80800012800D80124ED
:10387000386801F0C5FA2046BDE8FE8343464A4653
:1038800014A1304600F024FCDDE700001800002001
:10389000C53F002041542B43574A41505F43555286
:1038A0003D222573222C222573222C222573220DE2
:1038B0000A0000000D0A4641494C0D0A00000000B4
:1038C0000D0A4552524F520D0A0000000D0A4F4B8F
:1038D0000D0A000041542B43574A41505F43555253
:1038E0003D222573222C222573220D0A00000000A0
:1038F0007CB5244C4FF0FF31206801F0EFF9002532
:10390000FFF744FE254820A1064600F0E1FB3046C3
:10391000FFF76CFE80B322A0009023A3022201A92E
:103920004FF47A7000F08AFB30B39DF8040002284F
:1039300022D01EA2012101A8FFF702FDE0B19DF8EF
:1039400004301B4800213BB10122012B07D0022B80
:1039500008D0032B0FD10AE080F83B1704E080F871
:103960003B1706E080F83B2780F84C1703E080F80F
:103970003B2780F84C270125206801F041FA2846B2
:103980007CBD00001800002041542B43574448439D
:10399000505F4355523F0D0A00000000C53F002014
:1039A0004552524F520000004F4B00003A000000B9
:1039B000C43D00202DE9FC41184E07464FF0FF3171
:1039C000306801F08BF90024FFF7E0FD1448154D35
:1039D00090F81908E8B13A4613A1284600F078FBA0
:1039E0002846FFF703FE70B114A0009015A3022231
:1039F00001A94FF47A7000F021FB20B19DF804007A
:103A0000022800D00124306801F0FAF92046BDE810
:103A1000FC810DA1284600F05BFBE1E718000020C7
:103A2000C43D0020C53F002041542B434950434C26
:103A30004F53453D25640D0A000000004552524F8A
:103A4000520000004F4B000041542B434950434C5F
:103A50004F53450D0A000000F0B5334F85B04FF0CD
:103A6000FF31386801F03AF90024FFF78FFD334841
:103A70002EA1054600F02CFB2846FFF7B7FD0028D5
:103A80004CD02FA0009030A3022204A94FF47A70EA
:103A900000F0D4FA002841D09DF8100002283DD053
:103AA0002D4D2AA1681CFCF7DFFB002836D03A21F7
:103AB000FCF7ECFB461C3046FCF764FDC4EB04113C
:103AC00005EB4101641CE4B281F81C08052CF2D31B
:103AD00022A12C46681CFCF7C7FB05465FF00006D8
:103AE000C6EB061004EB400202F6360302F6380C71
:103AF000991E02F622008DE80B10031F1AA128461A
:103B00005A1EFCF70DFC681C14A1FCF7ADFB050068
:103B100003D0761CF6B2052EE2D30124386801F0FA
:103B20006FF905B02046F0BD1800002041542B432A
:103B300049505354415455530D0A0000C53F0020CD
:103B40004552524F520000004F4B00000A5354415F
:103B50005455533A00000000C43D00202B43495007
:103B60005354415455533A002B43495053544154F4
:103B700055533A25642C22253373222C22255B5E73
:103B8000225D222C25642C25642C25640000000075
:103B90007CB5194D4FF0FF31286801F09FF80024E3
:103BA000FFF7F4FC194815A1064600F091FA3046DB
:103BB000FFF71CFDD8B116A0009017A3022201A99F
:103BC0004FF47A7000F03AFA88B19DF804000228A8
:103BD0000DD012A2012101A8FFF7B2FB38B19DF868
:103BE000040000B101200E49012481F81908286859
:103BF00001F006F920467CBD1800002041542B43FB
:103C000049504D55583F0D0A00000000C53F0020A7
:103C10004552524F520000004F4B00003A00000046
:103C2000C43D00202DE9FE43284E0F4680469146B4
:103C30004FF0FF31306801F051F80024FFF7A6FC87
:103C40002348244D90F81908002839D03B464246B5
:103C500021A1284600F03CFA2846FFF7C7FC48B3EC
:103C600023A04FF47A75009023A3022202A92846CC
:103C700000F0E4F9F0B121A11DA0CDE9000121A3DC
:103C8000032202A9284600F0D9F998B19DF808004E
:103C900001280FD8FFF77AFC39464846FFF78CFC1D
:103CA00013A0009014A3022202A9284600F0C6F92E
:103CB00000B10124306801F0A3F82046BDE8FE837E
:103CC0003A4611A1284600F003FAC5E71800002083
:103CD000C43D0020C53F002041542B43495053456B
:103CE0004E444255463D25642C25640D0A000000D3
:103CF0004552524F520000004F4B000062757379DD
:103D0000000000003E00000041542B434950534541
:103D10004E444255463D25640D0A00002DE9FC47FE
:103D2000224E8946074690464FF0FF31306800F03A
:103D3000D5FF0024FFF72AFC1D481E4D90F81908F6
:103D400000282ED04B463A461BA1284600F0C0F969
:103D50002846FFF74BFCF0B11CA04FF47A75009099
:103D60001CA3022201A9284600F068F998B19DF829
:103D7000040002280FD0FFF709FC49464046FFF730
:103D80001BFC12A0009014A3022201A9284600F0F7
:103D900055F900B10124306801F032F82046BDE841
:103DA000FC870EA1284600F093F9D1E71800002007
:103DB000C43D0020C53F002041542B43495053458A
:103DC0004E443D25642C25640D0A00004552524F97
:103DD000520000003E0000004F4B000041542B43B6
:103DE00049505345525645523D300D0A00000000DF
:103DF0002DE9FC41154E05464FF0FF31306800F0CB
:103E00006DFF0024FFF7C2FB15482A4610A10746A4
:103E100000F05EF93846FFF7E9FB88B111A0009089
:103E200012A3022201A94FF47A7000F007F938B109
:103E30009DF80400022803D00D48012480F8195889
:103E4000306800F0DDFF2046BDE8FC81180000204E
:103E500041542B4349504D55583D25640D0A0000EF
:103E6000C53F00204552524F520000004F4B00000A
:103E7000C43D00202DE9FE4F2B4F884681461D464C
:103E800016464FF0FF31386800F028FF0024FFF796
:103E90007DFB2B48324625A1824600F019F9504699
:103EA000FFF7A4FB002830D026A0009027A3022211
:103EB00002A94FF47A7000F0C1F830B39DF8080001
:103EC000022822D0FFF762FB214890F8190810B3AE
:103ED000CDE9006543464A461EA1504600F0F8F879
:103EE0005046FFF783FB80B116A123A0CDE9000166
:103EF00016A3032202A946F2A81000F09FF820B1F1
:103F00009DF80800032800D00124386800F078FFED
:103F10002046BDE8FE8F3346424619A15046009523
:103F200000F0D6F8DCE700001800002041542B43D5
:103F300049505345525645523D312C25640D0A00D7
:103F4000C53F00204552524F520000004F4B000029
:103F5000C43D002041542B43495053544152543DD9
:103F600025642C22544350222C222573222C2564B4
:103F70002C25640D0A000000434F4E4E454354006B
:103F800041542B43495053544152543D22544350C1
:103F9000222C222573222C25642C25640D0A000076
:103FA0004FF480710148FCF754B90000C53F002070
:103FB00001A20221FFF736BE4F4B000001A20221F1
:103FC000FFF7ACBE4F4B000010B50120FFF728FBF8
:103FD000002203A105A0FFF71FFC0028F8D010BDA8
:103FE0003835333937363835380000007778630094
:103FF00010B50AA10B48FCF737F90B4C08B10120AA
:104000000AE02078022806D00A2340F2093207A1EC
:104010000020FFF72FFF0220207010BD302E302E21
:10402000302E3000DF440020D00000203139322E05
:104030003136382E302E3130360000000FB42DE9E5
:10404000F0470E0080460ED09DF8280000280BD0C7
:10405000002030709DF828000BAC800000F050FD6F
:104060000546002009E00020BDE8F0075DF814FBDC
:1040700002CC45F82010401CC0B29DF828108842A0
:10408000F6D30027DFF8449019E0322000F06EFDEF
:1040900000240FE055F8241009F10100FCF7E4F8C2
:1040A00004F1010428B13470284600F0BDFC012061
:1040B000DAE7E4B29DF828008442EBD33237474573
:1040C000E3D3284600F0B0FCCDE70000C43D00205B
:1040D0000FB4084B10B504A902AA039800F0E2F847
:1040E000044602A9002000F074FC204610BC5DF8D4
:1040F00014FB0000D34900080907090E002804DB5F
:1041000000F1E02080F80014704700F00F0000F18B
:10411000E02080F8141D704700487047E000002040
:1041200002E008C8121F08C1002AFAD17047704780
:10413000002001E001C1121F002AFBD170470000DE
:104140002DE9FF5FDDE90220010DDDF838B0024303
:1041500018D044F61050A1F2FF3141430D140F98CE
:10416000012820D0A5EB0B00401C5FEA000A4FF0AD
:104170000004474EDFF81C91A046504616D5CAF100
:10418000000728E00F98012443A2012808D000214D
:1041900000980F9BC0E90021C0E90243BDE8FF9FE2
:1041A0006FEA0B01F4E7CBF10000DEE7074612E00F
:1041B000F80707D02246334640464946FCF70CFC38
:1041C000804689462246334610461946FCF704FCD1
:1041D00004460E467F10002FEAD1DDE90201BAF154
:1041E000000F42464B4602DAFCF7F6FB01E0FCF713
:1041F00065FC04460E460022284BFCF7E7FC03D87A
:104200004FF0FF30014607E00022254B20463146A3
:10421000FCF73BFBFCF7C1FC102409E0002C0ADB97
:104220000A220023FCF74FFA019B30321A55641E14
:1042300050EA0102F2D1641C019AC4F11103144442
:104240000F9A012A03D0012208430DD10AE0084346
:1042500004D000204FF0110B0F9080E7A3EB0B056B
:104260006D1E0DE05B4504DD4FF0000205F1010518
:1042700004E003DA4FF00002A5F10105002AECD0BA
:1042800000980F99C0E90231C0E9004586E70000B7
:10429000000024400000F03F300000000000F04328
:1042A0000000E03F2DE9FF4F95B09B46894606464A
:1042B00000250FE2252877D100242746F84A01215E
:1042C000059400E0044316F8013F203B01FA03F097
:1042D0001042F7D130782A2811D06FF02F033078B0
:1042E000A0F13002092A16D8059A44F0020402EB24
:1042F000820203EB42021044761C0590EFE759F866
:10430000042B0592002A03DA504244F4005405902D
:1043100044F00204761C30782E2816D116F8010FCE
:1043200044F004042A280DD06FF02F023078A0F159
:104330003003092B09D807EB870302EB4303C718A7
:10434000761CF3E759F8047B761C30786C280FD084
:1043500006DC4C2817D068280DD06A2814D104E058
:10436000742810D07A280FD10DE044F400140AE02C
:1043700044F4801401E044F440147278824202D183
:1043800004F58014761C761C307866280BD013DC7C
:10439000582877D009DC002875D04528F6D0462863
:1043A000F4D047281AD19DE118E0632835D064285D
:1043B00079D0652812D195E1702873D008DC672880
:1043C000F1D069286FD06E280DD06F2806D1B5E0E6
:1043D00073282CD0752875D0782874D05A46179930
:1043E00090476D1C75E1C4F30250022809D00328E0
:1043F0000DD0D9F8001004280DD00D6009F1040982
:1044000067E1D9F80010EA17C1E90052F6E7D9F8D8
:1044100000100D80F2E70D70F0E719F8041B8DF81D
:10442000001000208DF80100EA46012003E059F851
:1044300004AB4FF0FF3061074FF0000102D40DE0F4
:1044400008F101018846B9420FDA8045F8DB1AF815
:1044500008100029F4D108E008F1010188468142E2
:10446000FADB1AF808100029F6D105985B46A0EB94
:10447000080721463846179A00F094FA284400EBC2
:10448000080507E04DE029E10DE01AF8010B5A4656
:1044900017999047B8F10108F7D25B462146384694
:1044A000179A13E142E00A220092C4F302524FF03D
:1044B000000A022A08D059F804CB032A4FEAEC710B
:1044C0000AD00DE029E02AE009F1070121F00702F6
:1044D000F2E802C1914609E00FFA8CFC4FEAEC7158
:1044E000042A03D14FFA8CFC4FEAEC71002907DA59
:1044F0000A460021DCF1000C61EB02012D2202E0F2
:10450000220504D52B228DF80420012203E0E207C6
:1045100001D02022F7E7904659E00A2102E010225C
:104520000DE010214FF0000A00910BE010224FF037
:10453000000A44F004040827009203E008224FF028
:10454000000A0092C4F30252022A05D059F804CBA3
:104550000021032A08D009E009F1070121F0070230
:10456000F2E802C1914605E01FFA8CFC042A01D151
:104570000CF0FF0C4FF00008220728D5702806D059
:10458000009B83F0100353EA0A0305D00EE040229B
:104590008DF80420012208E05CEA010206D03022F6
:1045A0008DF804208DF8050002229046009B83F0D0
:1045B000080353EA0A030AD15CEA010201D1620747
:1045C00005D530228DF804204FF001087F1E5828B1
:1045D00004D034A003900EA802900DE036A0F9E7B5
:1045E00053466046009AFCF76EF884460398825C56
:1045F0000298401E029002705CEA0100F0D102981D
:1046000006A9081A00F1200A600702D524F48034B4
:1046100000E00127574502DDA7EB0A0000E000207B
:1046200000EB0A01009005984144401A0590E00310
:1046300006D45B462146179A059800F0B3F9054465
:10464000002706E001A85A46C05D179990476D1CE7
:104650007F1C4745F6DBE0030CD55B462146179AE5
:10466000059800F09FF9054404E030205A46179958
:1046700090476D1C0099481E00900029F5DC08E069
:10468000029802995A460078491C0291179990475E
:104690006D1CBAF10001AAF1010AF1DC65E100002C
:1046A0000928010030313233343536373839616208
:1046B00063646566000000003031323334353637CC
:1046C00038394142434445460000000000F058F9A3
:1046D0000544761C307800287FF4ECAD19B02846EC
:1046E000BDE8F08F620700D4062709F1070222F027
:1046F000070CFCE80223E14603F000485FEA080CDF
:1047000002D00FF2702C0DE05FEA045C02D50FF2CC
:10471000682C07E05FEAC47C02D00FF2602C01E055
:10472000AFF2700C4FF0FF3823F00043CDF850C0CB
:1047300065280CD006DC452809D046281DD047281E
:104740003DD13DE0662818D067287ED138E00021B1
:10475000112F01DB112000E0781CCDE9000106A932
:104760000EA8FFF7EDFCDDE90F010E9A0391002181
:10477000009207F1010A04914DE04FF000400097CC
:10478000CDE9011006A90EA8FFF7DAFCDDE90F025A
:1047900003920E9B11990022DDF80CA00093049265
:1047A00011B9791C00EB010AB7EB0A0004D4C0F17F
:1047B000FF3007F1010A0490AAEB0700019044E0E2
:1047C000012F00DA01270021112F01DD112000E067
:1047D0003846CDE9000106A90EA8FFF7B1FCDDE9D6
:1047E0000F010E9A0391002104910092BA4621070D
:1047F0000CD40399514500DA8A46BAF1010F05DD60
:10480000009AAAF10101515C302908D0B84202DABD
:1048100010F1040F06DA0121CDE9011015E0AAF12B
:104820000101E9E7002805DC049901440491AAEBA1
:10483000000102E0411C514500DD8A460499401AFE
:10484000401C01904FF000400290200704D40198D2
:10485000504501DBCDF8048000208DF84F00029810
:104860000DF14F07B0F1004F25D02B200E9002988C
:104870004FF0020800280CDA404202902D200E90E2
:1048800007E00A210298FBF708FF3031029007F891
:10489000011DB8F10001A8F10108F2DC029800281E
:1048A000EFD1791E0E980870307800F0200040F0AB
:1048B000450007F8020D12A8C01B00F10708149864
:1048C000007800B1012000EB0A01019801EBE071D2
:1048D00005984144401A401E0590E00306D45B460B
:1048E0002146179A059800F05DF805441498007861
:1048F00018B15A46179990476D1CE00324D55B46C2
:104900002146179A059800F04DF805441CE00498DC
:10491000002807DBDDE90301884203DD0098405CE5
:10492000179901E0179930205A469047049805F1ED
:104930000105401C04900198401E019004D12E20D6
:104940005A46179990476D1CBAF10001AAF1010A65
:10495000DDDC05E017F8010B5A46179990476D1CEE
:10496000B8F10001A8F10108F4DC5B462146179A72
:104970000598ABE62D0000002B0000002000000091
:104980002DE9F041044600251E461746880404D44C
:1049900005E039462020B0476D1C641EF9D5284635
:1049A000BDE8F0812DE9F041044600251E46904601
:1049B000C80301D5302700E02027880404D505E08E
:1049C00041463846B0476D1C641EF9D52846BDE8FF
:1049D000F0810A68531C0B601070704770B5134665
:1049E0000D46064600F048F80446052802D34FF06D
:1049F000FF3070BD532104FB01F00A49012B41F83F
:104A0000206001EB8000456080F8493102D0022B24
:104A100005D102E000F03CFF01E000F049FF204634
:104A200070BD00003437002010B5002821D0114B94
:104A30000022001F196803E0814203D80A46496832
:104A40000029F9D152B11368841A9C4204D100683C
:104A500018441060104602E0506000E0186039B160
:104A600002680B1A934203D10B681A44026049682A
:104A7000416010BDD8000020074900205322424366
:104A800001EB820292F84921002A04D0401C05283B
:104A9000F4DB4FF0FF30704734370020084910B581
:104AA0000648C1F87001084601F0FEFBBDE8104061
:104AB000012204490448FFF791BF00003565000852
:104AC00078460020E163000870010020FCF7AEFE8C
:104AD000FDF7FEFFFDF7E4FEFDF772FEFDF774FF44
:104AE000FDF78EFFFDF7A8FFFDF752FFFDF72CFF46
:104AF00000F078F8FDF78AFE00F090F8FEE700007D
:104B0000F0B50B30154D20F007010024144A0FE0DA
:104B100003688B420BD38B4205D95E1A4318476852
:104B2000C3E9006700E04368136002C004E0021DAF
:104B300010680028ECD12046002802D1286808B16E
:104B40000020F0BD064A07481060074A121A22F0FA
:104B50000702C0E9002401202860D7E7DC0000201C
:104B6000D8000020F4470020F051002010B5EFF3EA
:104B7000058149B9EFF3108131B908490968022963
:104B800005D1EFF3118111B16FF0050403E00024AA
:104B900008B101F035FE204610BD00008400002061
:104BA00010B54FF00001EFF30582BAB9EFF31082B0
:104BB000A2B90B4A1268022A02D1EFF311826AB934
:104BC00048B1D0E902202AB1202807D3104601F0CD
:104BD00053FF02E010B901F041FF0146084610BD45
:104BE00084000020EFF3058058B9EFF3108040B93E
:104BF00009490868022801D030B109E0EFF31180BB
:104C000030B16FF005007047012008600020704748
:104C10004FF0FF30704700008400002010B5EFF324
:104C2000058060B9EFF3108048B90B490868022885
:104C300002D0012806D00BE0EFF3118040B16FF0F5
:104C4000050010BD0220086001F08AFE002010BDA2
:104C50004FF0FF3010BD00008400002070B5054605
:104C60004FF00004EFF30580A0BBEFF3108088BB8A
:104C700019480068022802D1EFF3118050BB0DB132
:104C8000686800E00020C10701D0012600E000268E
:104C900000071FD46DB1D5E9021021B1502819D3F6
:104CA0001EB1042002E020B114E0012001F096FFC3
:104CB00005E00EB1042000E0012001F084FF0400B3
:104CC00008D00DB1296800E0002101F037FD0EB1D8
:104CD00044F00104204670BD84000020F8B50D4664
:104CE0000024211F4E1C00280DD0EFF305824AB985
:104CF000EFF3108232B9144A1268022A17D1EFF387
:104D00001182A2B10DB10C461BE000216A46009150
:104D100002F004FA012813D1009890B10B494FF02A
:104D200080500860BFF34F8FBFF36F8F09E02946B3
:104D300002F042FA012804D015B16FF0010400E03E
:104D400034462046F8BD00008400002004ED00E059
:104D5000F8B5144603460E464FF00005EFF3058004
:104D6000E8BBEFF31080D0BB24480068022802D1D2
:104D7000EFF3118098BB93B39E423DD84CB1A0682D
:104D80000028E06803D0502836D3012002E008B1A3
:104D900032E00020012B05D010B31846A26801F0C4
:104DA000F2FE20E040B103200090002211460120D5
:104DB000A36801F044FF04E003220021012001F078
:104DC0001AFF050018D086B100231A46194601F0D3
:104DD000ADFF012809D0284601F0C4FC00250BE0F6
:104DE000184601F0B3FE050006D00CB1216800E0C2
:104DF0000021284601F0A2FC2846F8BD84000020CE
:104E000038B50024E51E002803D0EFF3058169B909
:104E100002E06FF0030423E0EFF3108131B9114990
:104E20000968022914D1EFF3118189B100210091A1
:104E3000694602F089F8012811D1009880B10A4929
:104E40004FF080500860BFF34F8FBFF36F8F07E0C4
:104E500000231A46194601F069FF012800D02C46AC
:104E6000204638BD8400002004ED00E0F0B585B098
:104E70000B464FF00004EFF305810394A1BBEFF361
:104E8000108189BB21490968022902D1EFF3118100
:104E900051BB48B3802618218DF8104004AD42B3B1
:104EA000176807B13D4697691FB139467F1E382FF5
:104EB00002D21779FF0702D0002005B0F0BD576974
:104EC00007B1BE08D2F808C0BCF1000F0DD0D468FD
:104ED0005C2C18D312693AB137B18DE8061032460E
:104EE000294602F08CFA03900DE0D7685FB9126989
:104EF0004AB903AACDE90012B2B2294602F052FA29
:104F0000012800D003940398D7E700008400002014
:104F10002DE9FC411C461746884606464FF0000521
:104F2000EFF3058078BBEFF3108060BB1748006893
:104F3000022802D1EFF3118028BB26B3082000F02D
:104F4000F7FB03001FD0B8F1000FC3E9006711D0D1
:104F500001220F4E00208CB1216801B10846A168E2
:104F600051B1E468302C0ED3CDE90061012102F08B
:104F700019FC07E00022ECE7E16821B90121009665
:104F800002F0F6FB05462846BDE8FC8184000020BF
:104F9000D52B00082DE9F041134C0F4605466669F4
:104FA0002068001D01F0D0FA681C07D137B12168D4
:104FB000BDE8F0410D48091D01F016BB20683544DD
:104FC000B5424560216805D2A068BDE8F041091DE1
:104FD00001F0F2BA6068091D01F0EEFA206B85421B
:104FE00000D22563BDE8F081340000204008002095
:104FF0002DE9F041054601F003FB2D4C2069401CD2
:10500000206120682B4F10B1E06930B32BE02560A0
:105010002069012827D1002606EB860007EB8000D7
:1050200001F0BCFA761C382EF6D3234801F0B6FA0C
:105030002148143001F0B2FA1F48283001F0AEFACE
:105040001D483C3001F0AAFA1B48503001F0A6FA86
:10505000194860601430A06005E02068E96AC06A01
:10506000884200D82560E06A401CE0626864E86A13
:10507000A169884200D9A06100EB800007EB8000A5
:10508000291D01F0B1FA01F0DBFAE06900280CD02B
:105090002068E96AC06A884207D208494FF0805008
:1050A0000860BFF34F8FBFF36F8FBDE8F081000042
:1050B0003400002090030020F007002004ED00E001
:1050C00038B501F09DFA104CA068C8B90F4801F03E
:1050D00065FA0E48143001F061FA0C482060143073
:1050E00060600A4B00202833009003F15002102129
:1050F0000A2001F0A4FDA06010B105A101F01EFB83
:10510000BDE8384001F09CBA70000020540800202F
:10511000546D72510000000030B4026C0B46002A3E
:105120000BD0C1681144C1604468A14201D3016839
:10513000C16030BC1846FBF773B830BC70472DE92E
:10514000F041856B174604460026026C82B1C7B158
:10515000E068FBF765F8E168206C091AE1602268F5
:10516000914202D26168081AE060022F16D017E05F
:105170002068A8B9606802F0E5F906460020606082
:105180000EE0A068FBF74CF8216CA0680844A06012
:105190006168884204D32068A06001E005B16D1EFB
:1051A0006D1CA5633046BDE8F08110B5044690F84B
:1051B000590058B101280CD002280FD0502080F39C
:1051C0001188BFF34F8FBFF36F8FFEE7206B01F0A5
:1051D0004BFA2046BDE8104001F046BA10BD000071
:1051E0000F4842F21071420705D0C01D0C4A20F052
:1051F0000700821A891A0B4A00230144C2E90003FE
:105200000839103A21F0070111604B600B600B1A4E
:10521000C0E9001393604FF000405360D0607047C6
:105220002410002098000020144E154CA6F29C4734
:105230004FF08058DFF84C9012E000BF01F0E0F929
:10524000F068C568281D01F07FF92069401E2061C3
:10525000E068401EE06001F0F3F92846FFF7A5FF83
:10526000E0680028EAD138680128F9D9C9F8008037
:10527000BFF34F8FBFF36F8FF2E700002C080020C1
:105280003400002004ED00E0002807D00021416038
:1052900001600B460A46C16001F048BD704700003E
:1052A00070B51D46049C51B1C4F80020C4E90F013B
:1052B0000121204601F0F6FC84F84C5070BD2460BA
:1052C000F4E72DE9F0470E46DDE9098417468246EA
:1052D00091009946089DA522206BFAF7B3FF6FF065
:1052E0000301206B01EB8701084420F007077807D2
:1052F00007D0502080F31188BFF34F8FBFF36F8F1B
:10530000FEE72218315C82F83410315C11B1401C88
:105310001028F6D3002684F84360382D00D33725B3
:10532000E562C4E91356201D01F043F904F11800A9
:1053300001F03FF92461C5F138006462A06166653F
:1053400084F858604A465146384600F07BFA20609F
:10535000B8F1000F01D0C8F80040BDE8F0872DE992
:10536000F0471E46DDE9089417460D0080460ED032
:10537000002C14D0FFF7A4FEC4F80080C4E906573F
:10538000C4E90869201DBDE8F04701F012B95020BA
:1053900080F31188BFF34F8FBFF36F8FFEE7BDE837
:1053A000F087000030B5114900E011460A688242DA
:1053B000FBD34B685C18844203D1406818444860B2
:1053C000084643681C18944209D1084C103C2468D4
:1053D000A24209D052681A4442600A681268026008
:1053E000814200D0086030BD0460F9E798000020D9
:1053F00070B5002441600B4D0061914206D8D11A6E
:105400008269914206D2011D686807E09A4203D280
:10541000994201D3012403E0011D286801F0CCF872
:10542000204670BD7000002010B5044601F0E8F879
:10543000A06B28B15FF0000401F002F9204610BD16
:105440000124F9E730B589B0304D55E004980028C3
:1054500006DADDE90601059A9047049800284BDB3F
:10546000069C606910B1201D01F06EF802A800F0E2
:10547000B9F8024604980A283ED2DFE800F0050594
:10548000053D263705053D260598A16903460144DB
:105490002046FFF7ADFF00B3616A20468847E06908
:1054A000012829D1002000900598A1690023421805
:1054B0001946204602F0BEF978B9502080F31188D1
:1054C000BFF34F8FBFF36F8FFEE70598A06128B140
:1054D000811813462046FFF78BFF0DE0502080F324
:1054E0001188BFF34F8FBFF36F8FFEE794F82C0046
:1054F00010B9204601F0B8F8002204A9A86801F00C
:1055000071FD0028A2D109B030BD0000700000205C
:105510002DE9FC410F46054601F066FA01A800F0AE
:1055200061F80446019818B102F0C0F8BDE8FC81AA
:10553000224EAFB170680068A8B30027291B3A4615
:10554000B06801F03BF902F0B1F80028EED11C4937
:105550004FF080500860BFF34F8FBFF36F8FE5E7C8
:10556000A542EBD802F0A2F830682746C068C468AC
:10557000201D00F0E9FFE069012810D1A0692B4649
:1055800041193A462046FFF733FF40B10020034659
:10559000014600902A46204602F04CF920B1616A8B
:1055A00020468847C2E707E0502080F31188BFF308
:1055B0004F8FBFF36F8FFEE70127BFE7700000201A
:1055C00004ED00E006484168096829B14168C968EE
:1055D000C9684968016370474FF0FF31FAE700007E
:1055E0003400002070B5054601F042FF064E044627
:1055F0003069844203D200F009F8012000E0002065
:1056000028602046346170BD70000020F8B5194D47
:105610001FE0C068C4680668201D00F095FF616A3D
:1056200020468847E069012813D1A0693044B04280
:1056300006D924616060211D286800F0BDFF08E0E4
:1056400000200346014600903246204602F0F2F860
:1056500038B1286801680029DBD16968C5E9001004
:10566000F8BD502080F31188BFF34F8FBFF36F8FC9
:10567000FEE700007000002008484068401C4FF022
:10568000500080F3118804D0BFF34F8FBFF36F8FAA
:10569000FEE7BFF34F8FBFF36F8FFEE7A000002040
:1056A000074C2068016841B1C0680021D0F80000B3
:1056B000FFF72EFFFFF7C6FEF3E701210020F7E713
:1056C000700000202DE9F041044600F099FF94F9A4
:1056D000455004F1240609E0606A48B1304601F003
:1056E000ADFF08B101F0BAF86D1E6DB2002DF3DC0C
:1056F0004FF0FF3684F8456000F0A2FF00F080FF15
:1057000094F9445004F1100709E0206948B1384683
:1057100001F094FF08B101F0A1F86D1E6DB2002DEB
:10572000F3DC84F84460BDE8F04100F089BF00007C
:105730002DE9F0410546002701F056F9314E306859
:1057400008B9FFF74DFDF06805424BD1C5B30835E8
:1057500068070ED005F00700C0F10800054468078F
:1057600007D0502080F31188BFF34F8FBFF36F8FA6
:10577000FEE72DB37068854234D8224810300146C8
:105780000C6801E020460C466168A94202D22168FB
:105790000029F7D131688C4224D007682168016064
:1057A00060680837411B10290FD96019420708D0DB
:1057B000502080F31188BFF34F8FBFF36F8FFEE748
:1057C00010E041606560FFF7EDFD61687068401AA8
:1057D0007060B268904200D2B060F068014300206F
:1057E000C4E9000101F062FF780707D0502080F380
:1057F0001188BFF34F8FBFF36F8FFEE73846BDE8C8
:10580000F0810000880000200449086818B1086889
:10581000026D521C026508687047000034000020C9
:1058200010B5040006D000F0EBFE246A00F008FF7B
:10583000204610BD502080F31188BFF34F8FBFF377
:105840006F8FFEE710B5031F4FF080741C601B1FA5
:1058500021F001011960191F024B0B601439403807
:105860000A6010BD7956000804460020FDF74AFD85
:1058700006480168C86840F02000C8602046FDF76F
:10588000D9FB0120FFF772F9F8E70000B40100200E
:1058900010B5044600684FF4807204F10801FCF76B
:1058A000FFFE20680068C16841F01001C16010BDB2
:1058B00010B504460068012204F10801FCF705FF59
:1058C00020680068C16841F02001C16010BD10B5BA
:1058D000044690F86A0100F00302012A29D0022A46
:1058E0002DD1412906D0422906D0432909D0442987
:1058F0001CD112E0002100E00121204600F086FCCE
:1059000014E0208FE18E884210D2211D415C204698
:1059100000F0BEF8208F401C07E0208F30B1082136
:10592000204600F0B5F8208F401E208794F86A01C9
:1059300001E05B2904D020F0030084F86A0110BD67
:1059400020F00300801CF8E790F86A1121F00301B1
:10595000491C80F86A11704770B50446C08E002853
:105960004BD0228F0023211D82420BD1401E80B2DA
:10597000E086521E228743542046BDE87040012134
:1059800000F064B8002A38D0002006E02244051D4B
:10599000565DC51C401C565500B2E58E228FAD1ACF
:1059A0008542F3DCE08E401E80B2E086228F521EDC
:1059B000228743540821204600F06AF8B4F9385091
:1059C00006E060190179204600F062F86D1C2DB2E6
:1059D000E08EA842F5DC2021204600F059F8E08E48
:1059E000218F401A401C05B205E00821204600F036
:1059F0004FF86D1E2DB2002DF7DC70BD10B500F014
:105A000041FB002804D0BDE8104002A100F02CB8F2
:105A100010BD00001B5B324A1B5B314800000000D8
:105A200070B50546C08E298F401A04B205E02021CA
:105A3000284600F02DF8641E24B2002CF7DCE98E15
:105A40002846BDE8704000F001B8000070B50C4673
:105A5000054603E003A1284600F006F8641EA4B240
:105A6000F8D270BD0820080070B50646D0F8700165
:105A700000240D4600280AD005E0D6F870116D1CF0
:105A80008847641CA4B228780028F6D1204670BD4F
:105A9000D0F87021002A01D0084610477047000056
:105AA00070B50646D0F85C0100EB01153046296858
:105AB000FFF7DAFFC0F1160004B2002C00DC04246A
:105AC0000AA13046FFF7D0FF641E24B2002CF7D1A4
:105AD00007A13046FFF7C8FF3046A968FFF7C4FFAB
